:1000000030C300005FC300005DC300005BC300009D
:1000100059C3000057C3000055C3000053C300007C
:1000200051C300004FC300004DC300004BC300008C
:1000300049C3000047C3000045C3000043C300009C
:1000400041C300003FC300003DC300003BC30000AC
:1000500039C3000037C3000035C300000C94334F90
:1000600031C300000C947F530C94B5532BC3000094
:1000700029C3000027C3000025C3000023C30000DC
:1000800021C300001FC300001DC300001BC30000EC
:100090000C942A540C94605415C300000C94C8436B
:1000A00011C300000FC300000DC300000BC300000C
:1000B00009C3000007C3000005C3000003C300001C
:1000C00001C30000FFC20000FDC200000C94D55423
:1000D0000C940B55F7C200000C9480550C94B65547
:1000E000F1C200009B287228752878287B287E287A
:1000F00080288328862889288C288F28922894286D
:100100009728942ECF2FCF2FCF2FCF2FCF2FCF2F7A
:10011000CF2FCF2FCF2FCF2FCF2FCF2FCF2FCF2FEF
:10012000CF2FCF2FCF2FCF2FCF2FCF2FCF2FCF2FDF
:10013000CF2FCF2FCF2FCF2FCF2FCF2FCF2FAA2FF4
:10014000462F532FCF2F2E2F5C2F602FEC2ECF2F2B
:10015000162F7F2FE62EA12F952F9D2FC72EB02F64
:100160009B2EC02FCF2F8D2FB82FCF2FC82FCF2F43
:10017000CF2FCF2FCF2FCF2FCF2FCF2FCF2F852FD9
:10018000322F4A2F262F2A2F572F642F222FCB2E84
:10019000FB2ECF2FE32EA62F912F992F9F2E822F4C
:1001A000CB2FBC2F1E2F892FB42FCF2FC42F9237C8
:1001B0009937A037A737AE37C537B537C537BC37FE
:1001C000644B704B744B7A4B7F4B934B9C4BA24BC5
:1001D000A74BAC4BAC4BAC4BAC4BAC4BAC4BAC4B6C
:1001E000AC4BAC4BAC4BAC4BAC4BAC4BAC4BAC4B57
:1001F000AC4BAC4BAC4BAC4BAC4BAC4BAC4BAC4B47
:10020000644B694B704B744B7A4B7F4B854B894BDE
:100210008E4B87508C5091509B50A5501E51AF5023
:10022000B750BF50C950D350DD50EC50F6501E515E
:1002300000510A51145140514351325136513C51F1
:100240007A5147514B515151555159515F51635159
:1002500067517A516D5171517551084AD73B3BCE68
:10026000016E84BCBFFDC12F3D6C74319ABD5683B5
:100270003DDA3D00C77F11BED9E4BB4C3E916BAA6D
:10028000AABE000000803F05A84CCDB2D44EB938BC
:1002900036A9020C50B9918688083CA6AAAA2ABEA3
:1002A000000000803F08000000BE922449123EABCF
:1002B000AAAA2ABECDCCCC4C3E00000080BEABAA80
:1002C000AAAA3E00000000BF000000803F0000001E
:1002D0000000084178D3BB4387D1133D190E3CC3BE
:1002E000BD4282AD2B3E68EC8276BED98FE1A93E3D
:1002F0004C80EFFFBE01C4FF7F3F00000000000004
:10030000005EBCE2613FDD83C29C7E20A3FD1F41F5
:100310009DC3217FFCA2401E5F01E3BD3E6082DCE5
:10032000237D9FC1421CFEA0E1BF5D0380DE3C62D5
:10033000BEE0025CDF81633D7C22C09E1D43A1FFC5
:100340004618FAA427799BC584DA3866E5BB5907B5
:10035000DB856739BAE406581947A5FB7826C49AA5
:10036000653BD987045AB8E6A7F91B45C6987A2495
:10037000F8A6441A99C7257B3A6486D85B05E7B985
:100380008CD2306EEDB3510F4E10F2AC2F7193CD75
:10039000114FADF3702ECC92D38D6F31B2EC0E5065
:1003A000AFF1134DCE90722C6D33D18F0C52B0EE55
:1003B000326C8ED0530DEFB1F0AE4C1291CF2D7345
:1003C000CA947628ABF517490856B4EA6937D58B35
:1003D0005709EBB536688AD495CB2977F4AA481625
:1003E000E9B7550B88D6346A2B7597C94A14F6A815
:1003F000742AC896154BA9F7B6E80A54D7896B3505
:1004000000000A0B02090C0D0E080703040100008E
:1004100000000000000000000000000000000000DC
:100420000000000000000000000000001211100099
:1004300000000000000000000000000000000000BC
:1004400000000000000001021020200808102040D9
:100450001020408002010201080402010102040888
:100460001020408080402010080402018004020116
:10047000804020100804020108040201010204085F
:100480001020408001020408102040800505050569
:10049000070508080808020202020A0A08080404FC
:1004A000040401010101010101010303030303032A
:1004B0000303040707070C0C0C0C0C0C0C0C0202B9
:1004C000020206060606060606060B0B0B0B0B0BB6
:1004D0000B0B000020002300260029002C002F0019
:1004E00032000001000003010601090100002200A2
:1004F000250028002B002E003100340002010000EE
:10050000050108010B0100002100240027002A003A
:100510002D003000330001010000040107010A0131
:100520004E414E494E495459494E46CDCCCC3D0AD8
:10053000D7233C17B7D13877CC2B329595E6241FBB
:10054000B14F0A000020410000C84200401C462074
:10055000BCBE4CCA1B0E5AAEC59D7400407A10F347
:100560005A00A0724E18090010A5D4E80000E876E1
:1005700048170000E40B54020000CA9A3B00000038
:10058000E1F505000080969800000040420F000051
:1005900000A08601000000102700000000E8030012
:1005A0000000006400000000000A000000000001DC
:1005B00000000000002C76D888DC674F0823DFC1DC
:1005C000DFAE59E1B1B796E5E3E453C63AE6519997
:1005D0007696E8E6C28426EB898C9B62ED407C6FC0
:1005E000FCEFBC9C9F40F2BAA56FA5F490055A2A77
:1005F000F75C936B6CF9676DC11BFCE0E40D47FE83
:10060000F520E6B500D0ED902E0300943577050077
:1006100080841E080000204E0A000000C80C3333FE
:1006200033330F986E12831141EF8D2114893BE60D
:100630005516CFFEE6DB18D1844B381BF77C1D9096
:100640001DA4BBE424203284725E228100C9F124FF
:10065000ECA1E53D2700BF2CE742E75392543D55FE
:10066000E85511241FBECFEFD1E2DEBFCDBF00E0C1
:100670000CBF14E0A0E0B2E0E6E5F5EC00E00BBF53
:1006800002C007900D92A03BB107D9F72DE0A0EB77
:10069000B4E001C01D92A333B207E1F716E0C2E651
:1006A000D6E000E006C022970109FE010BBF0E94C0
:1006B000FB5AC635D10780E00807A9F70E942C56DF
:1006C0000C94A9629DCC0C94125E4F925F926F9233
:1006D0007F928F929F92AF92BF92CF92DF92EF92D2
:1006E000FF924B015C01CA01B901A50194010E946E
:1006F000DB566B017C0180919F09882321F0F7FA7A
:10070000F094F7F8F09420E030E0A901C701B601B9
:100710000E94525918165CF420E030E040E450E4A6
:10072000C701B6010E94A25787FF1AC00AC020E085
:1007300030E040E450ECC701B6010E94525918164F
:100740007CF42091BA043091BB044091BC045091D8
:10075000BD04C701B6010E94DC562B013C0103C059
:10076000412C512C32014092BA045092BB04609249
:10077000BC047092BD0420918F0930919009409182
:10078000910950919209C701B6010E94A2596B01CB
:100790007C012091930930919409409195095091E1
:1007A0009609C301B2010E94A2599B01AC01C70185
:1007B000B6010E94DC566B017C01A5019401609199
:1007C000B6047091B7048091B8049091B9040E9466
:1007D000DB5620919B0930919C0940919D095091D5
:1007E0009E090E94A2599B01AC01C701B6010E945B
:1007F000DC562091970930919809409199095091C0
:100800009A090E94A25920E030E040E251E40E949F
:10081000DC568092B6049092B704A092B804B092CD
:10082000B9040E9411586536710514F064E670E051
:10083000CB0177FF02C080E090E0FF90EF90DF9067
:10084000CF90BF90AF909F908F907F906F905F9070
:100850004F90089562E086E30E947B5162E087E357
:100860000C947B5161E08EE10E947B5160E08EE14F
:100870000E94B4511092BF040895EF92FF920F931B
:10088000282F80917509882379F08091BF04811108
:100890000BC0E62EF12C30E040E050E000E06EE1CD
:1008A0008BED95E00E94033F0F91FF90EF9008952C
:1008B0008AE30E94E951892B49F48BE30E94E951B4
:1008C00021E0892B09F020E0822F089580E008952F
:1008D00060E070E088E00E94635060E08AE30E947C
:1008E000B45160E08BE30C94B4511F93CF93DF932A
:1008F000E0917609E23011F4EBDF2DC081E08093C6
:10090000BF04CE2FD0E08AE1E89FF0011124EF5B15
:10091000F64F84819581BC01660F771F680F791FA0
:10092000882777FD8095982F0E944458AB01BC0121
:100930001AE51C9FC0011D9F900D11248B51984FEB
:100940000E94B23D80917609189FC00111248B51FD
:10095000984F0E94D53D0E947D4F68517C4F8F4F2C
:100960009F4F6093FA067093FB068093FC0690936A
:10097000FD06DF91CF911F91089561E08AE30E9407
:100980007B5161E08BE30E947B5161E088E00E9433
:100990007B519ECF8DDF811104C09ADF61E084E13D
:1009A0006CCF08954F925F926F927F929F92AF9219
:1009B000BF92CF92DF92EF92FF920F931F93CF934C
:1009C000DF931F92CDB7DEB7982E2B01122F4983EC
:1009D0007FDF80917E094981882321F081E04111E8
:1009E00080E0482F61E0411102C08AE301C08BE33F
:1009F0000E94B451692D70E080E090E0662457FCBD
:100A00006094762C112321F11F921F921F922FEFD9
:100A10002F93A12CB12C650114E6E12EF12C00E0FE
:100A200010E020E030E0A9010E94905688E00E948A
:100A300063500E947D4F640D751D861D971D609348
:100A4000FE067093FF06809300079093010725C070
:100A50001F921F921F922FEF2F93A12CB12C650193
:100A600014E6E12EF12C00E010E020E030E0A901D6
:100A70000E94905688E00E9463509092BE040E94AB
:100A80007D4F640D751D861D971D60930207709341
:100A9000030780930407909305070F900F900F9022
:100AA0000F900F90DF91CF911F910F91FF90EF90DA
:100AB000DF90CF90BF90AF909F907F906F905F90AE
:100AC0004F9008951F93CF93DF9300D000D0CDB700
:100AD000DEB76CEE73E00E94855B10E0009791F04A
:100AE0000E943A5BFE013196E10FF11DE10FF11D0D
:100AF000918380831F5F6CEE73E080E090E00E9442
:100B0000855BECCF123078F06D817E8120E04981E9
:100B10008B8126960FB6F894DEBF0FBECDBFDF9156
:100B2000CF911F913FCF26960FB6F894DEBF0FBE30
:100B3000CDBFDF91CF911F9108959AE5899FF00174
:100B40001124EF51F84F2091A4093091A509220FEB
:100B5000331F220F331F82819381820F931F0895C9
:100B6000CF92DF92EF92FF926B017C01842FE5DF41
:100B7000B701A601FF90EF90DF90CF900C941B3748
:100B8000CF93DF9300D01F92CDB7DEB7D6DFBE0183
:100B90006F5F7F4F0E94323769817A818B819C81A0
:100BA0000F900F900F900F90DF91CF9108950F93BA
:100BB0001F93CF93DF93CDB7DEB760970FB6F8944E
:100BC000DEBF0FBECDBF8C014FE050E0BE016F5FB6
:100BD0007F4F84E893E00E943D37BE016F5F7F4FF7
:100BE000C8010E94885B60960FB6F894DEBF0FBE06
:100BF000CDBFDF91CF911F910F9108950F931F9358
:100C0000CF93DF9301E419E0C4EFD1E0CE015BDDC7
:100C1000F80161918F0190E0262F332727FD309551
:100C20008217930719F0CE010E941A5E2196CC38E4
:100C3000F2E0DF0759F7DF91CF911F910F910895EF
:100C40008F929F92AF92BF92CF92DF92EF92FF92DC
:100C500080E096DF4B015C0181E092DF6B017C015B
:100C60008091A4099091A50901968431910514F011
:100C700080E090E09093A5098093A409BFDF80E015
:100C80005CDFB501A4010E941B3781E056DFB7018C
:100C9000A601FF90EF90DF90CF90BF90AF909F9014
:100CA0008F900C941B370F931F93CF93DF938AE899
:100CB00092E009DD90E02091D709332727FD309598
:100CC0008217930739F589E892E0FDDC90E02091E6
:100CD000D609332727FD309582179307D9F488E882
:100CE00092E0F1DC90E02091D509332727FD309583
:100CF0008217930779F401E419E0C4EFD1E0CE0143
:100D0000E2DCF80181938F012196CC38F2E0DF0715
:100D1000B1F705C0DF91CF911F910F916FCFDF9198
:100D2000CF911F910F9108958F929F92AF92BF9292
:100D3000EF92FF920F931F93CF93DF930E947D4F0B
:100D400068537F4F8F4F9F4F6093F6067093F7065F
:100D50008093F8069093F90685E40E943E508C013A
:100D600080914807909149076BEF7FEF0E94855A69
:100D7000600F711F709351076093500789E30E94C1
:100D80003E5090934B0780934A0788E30E943E5061
:100D900090934D0780934C0784E40E943E50EC01F1
:100DA00090934F0780934E07809150079091510781
:100DB000BC01882777FD8095982F809052079090EE
:100DC0005307A0905407B0905507860E971EA81E93
:100DD000B91E8092520790925307A0925407B09286
:100DE0005507E0904A07F0904B070E9444584B018A
:100DF0005C01B701882777FD8095982F0E944458A1
:100E00009B01AC01C501B4010E94A2599B01AC0138
:100E10006091560770915707809158079091590734
:100E20000E94DC56609356077093570780935807CB
:100E30009093590720916407E22FF0E0DF01AA0F99
:100E4000BB1FA65AB84F0D931C93EE0FFF1FE85B14
:100E5000F84FF68EE58ED2ABC1AB80914C079091E6
:100E60004D0790A787A381E0820F853018F4809307
:100E7000640702C010926407DF91CF911F910F9118
:100E8000FF90EF90BF90AF909F908F900895EF925A
:100E9000FF920F931F93CF93DF93C3E085E40E94EB
:100EA0003E50080F191FC150C9F7C2ECD6E0FCE054
:100EB000EF2EF2E0FF2E6991F70181917F010E94F0
:100EC000B451F6E0C63CDF07B1F7E3E0FE2EC0E028
:100ED000D0E085E40E943E50C80FD91FFA94C9F7AC
:100EE000C01BD10BC937D1057CF061E08EE1C5DCB8
:100EF00064E670E080E090E0DF91CF911F910F9168
:100F0000FF90EF900C94AC4FDF91CF911F910F9118
:100F1000FF90EF9008958F3F11F48091C6068E3FA9
:100F200011F48091C70690E00895AF92BF92CF92DE
:100F3000DF92EF92FF920F931F93CF93C82F862FCC
:100F4000EADFBC01882777FD8095982F1F921F92BA
:100F50001F922FEF2F93A12CB12C650114E6E12EE7
:100F6000F12C00E010E020E030E0A9010E94905652
:100F70000F900F900F900F908C2FCF911F910F918A
:100F8000FF90EF90DF90CF90BF90AF900C946350A4
:100F9000E1E8F0E0208194E0981B287F922B908379
:100FA000089594E0981B943021F0933019F494E064
:100FB00001C096E08091B100887F892B8093B100B9
:100FC0000895E1EAF0E0208194E0981B287F922BBD
:100FD00090830895E1E2F1E0208194E0981B287F5E
:100FE000922B9083089580918B09DBDF80918C098F
:100FF000CFDF80918D09E5DF80918E09EBCF1F93C4
:10100000CF93DF93CDB7DEB72C970FB6F894DEBF42
:101010000FBECDBF6CEE73E00E94855B10E00097C1
:10102000B9F00E94375BE1E0F0E0EC0FFD1F24E037
:10103000129FE00DF11D11246083718382839383DD
:101040001F5F6CEE73E080E090E00E94855BE7CF6D
:10105000123008F440C020E030E04AE754E46981EF
:101060007A818B819C810E94A95760937F0970933C
:101070008009809381099093820920E030E04AE75B
:1010800054E46D817E818F8198850E94A957609379
:10109000830970938409809385099093860920E0E1
:1010A00030E04AE754E469857A858B859C850E9407
:1010B000A957609387097093880980938909909351
:1010C0008A092C960FB6F894DEBF0FBECDBFDF9114
:1010D000CF911F9193CD2C960FB6F894DEBF0FBE23
:1010E000CDBFDF91CF911F910895EF92FF920F93A3
:1010F0001F93CF93DF93CDB7DEB728970FB6F89441
:10110000DEBF0FBECDBF7C0160917F097091800969
:1011100080918109909182098E010F5F1F4F23E01A
:1011200045E00E94135BB801C7010E94885B6CEE2A
:1011300073E0C7010E94885B609183097091840904
:10114000809185099091860923E045E00E94135B18
:10115000B801C7010E94885B6CEE73E0C7010E9472
:10116000885B6091870970918809809189099091C5
:101170008A0923E045E00E94135BB801C7010E9481
:10118000885B28960FB6F894DEBF0FBECDBFDF9107
:10119000CF911F910F91FF90EF9008951F93CF93E0
:1011A000DF93CDB7DEB76A970FB6F894DEBF0FBEF8
:1011B000CDBF6CEE73E00E94855B10E0009791F06C
:1011C0000E943A5BFE013196E10FF11DE10FF11D26
:1011D000918380831F5F6CEE73E080E090E00E945B
:1011E000855BECCF1C3008F480C08981809378093E
:1011F0008B819C8190937A09809379098D819E815E
:1012000090937C0980937B098F8180937D09698508
:101210007A85882777FD8095982F0E94445820E092
:1012200030E04AE754E40E94A95760938F09709315
:10123000900980939109909392096B857C8588270A
:1012400077FD8095982F0E94445820E030E44CE1CF
:1012500056E40E94A9576093930970939409809370
:101260009509909396096D857E85882777FD8095F1
:10127000982F0E94445820E030E44CE156E40E944C
:10128000A95760939B0970939C0980939D09909343
:101290009E096F857889882777FD8095982F0E9411
:1012A0004458609397097093980980939909909393
:1012B0009A09898980939F098B899C899093A109B8
:1012C0008093A0098D89809377098F898093A309E2
:1012D000898D8093A2096A960FB6F894DEBF0FBE7F
:1012E000CDBFDF91CF911F9189CC6A960FB6F8944C
:1012F000DEBF0FBECDBFDF91CF911F910895AF929A
:10130000BF92CF92DF92EF92FF920F931F93CF93F2
:10131000DF93CDB7DEB728970FB6F894DEBF0FBEC8
:10132000CDBF6C01809178091F928F93B8E0AB2EEE
:10133000B3E0BB2EBF92AF92CE0101967C01FF922B
:101340008F930E94F65BB701C6010E94885B6CEE2A
:1013500073E0C6010E94885BE9E7F9E081818F9321
:1013600080818F93BF92AF92FF92EF920E94F65BC3
:10137000B701C6010E94885B6CEE73E0C6010E9453
:10138000885BEBE7F9E081818F9380818F93BF9237
:10139000AF92FF92EF920E94F65BB701C6010E94E6
:1013A000885B6CEE73E0C6010E94885B80917D09CA
:1013B0001F928F93BF92AF92FF92EF920E94F65BC3
:1013C000B701C6010E94885B6CEE73E0C6010E9403
:1013D000885B60918F09709190098091910990913B
:1013E0009209870123E045E00E94135BB701C60123
:1013F0000E94885B6CEE73E0C6010E94885B60917E
:10140000930970919409809195099091960924E02F
:1014100046E00E94135BB701C6010E94885B6CEE38
:1014200073E0C6010E94885B60919B0970919C09E2
:1014300080919D0990919E0924E046E00E94135BF3
:10144000B701C6010E94885B6CEE73E0C6010E9482
:10145000885B6091970970919809809199099091A2
:101460009A0920E045E00E94135BB701C6010E9483
:10147000885B6CEE73E0C6010E94885B80919F09D7
:101480001F928F93BF92AF92FF92EF920E94F65BF2
:10149000B701C6010E94885B6CEE73E0C6010E9432
:1014A000885BE0EAF9E081818F9380818F93BF921E
:1014B000AF92FF92EF920E94F65B0FB6F894DEBFF8
:1014C0000FBECDBFB701C6010E94885B6CEE73E012
:1014D000C6010E94885B809177091F928F93BF920B
:1014E000AF92FF92EF920E94F65BB701C6010E9495
:1014F000885B6CEE73E0C6010E94885B8091A30953
:101500001F928F93BF92AF92FF92EF920E94F65B71
:10151000B701C6010E94885B6CEE73E0C6010E94B1
:10152000885B8091A2091F928F93BF92AF92FF9226
:10153000EF920E94F65BB701C6010E94885B0FB66E
:10154000F894DEBF0FBECDBF28960FB6F894DEBF6D
:101550000FBECDBFDF91CF911F910F91FF90EF9004
:10156000DF90CF90BF90AF900895EF92FF920F93CE
:101570001F93CF93DF9300D01F92CDB7DEB77C01CE
:1015800019821A821B821C82FB0180818E010F5FEF
:101590001F4F823399F05CF4813329F580918B09D8
:1015A0001F928F9388E093E09F938F9312C08333B1
:1015B00041F08433C1F480918E0905C080918C097B
:1015C00002C080918D091F928F9328E033E03F93F2
:1015D0002F931F930F930E94F65B0F900F900F9025
:1015E0000F900F900F90B801C7010E94885B0F9079
:1015F0000F900F900F90DF91CF911F910F91FF905F
:10160000EF900895DF92EF92FF920F931F93CF9385
:10161000DF9380914C05882309F454C080915A05CA
:10162000882309F44FC00E947D4F0091B2041091AD
:10163000B3042091B4043091B504601B710B820B8C
:10164000930B61367A4E8105910520F40E942D4F4F
:101650000297C1F18CE495E00E947D497C018CE405
:1016600095E00E948D49082F8CE495E00E94AC49DA
:10167000D82E8AE595E00E94DE49D82F8AE595E0CC
:101680000E94C849C82F8AE595E00E94BA4910E037
:101690002D2D30E04D2F50E06C2F70E0E091D109FE
:1016A000F091D209DF01A80FB11DCD010E940B4FAF
:1016B0000E947D4F6093B2047093B3048093B4048E
:1016C0009093B50480E0DF91CF911F910F91FF902F
:1016D000EF90DF900895CF93C82F8091D40988238D
:1016E00079F08091CE09813059F0E091F70BF091BB
:1016F000F80B0190F081E02D6C2F87EF9BE019959E
:101700006C2F8AE295E00E94E74B882311F0CF917D
:1017100079CFCF9108958F929F92AF92BF92CF923F
:10172000DF92EF92FF920F931F93CF93DF93CDB78A
:10173000DEB760970FB6F894DEBF0FBECDBF4C0189
:101740008091C7059091C805A091C905B091CA05BF
:10175000C297A105B10518F463E372E053C080910C
:101760004C05882309F44CC08CE495E00E947D4927
:101770009F938F9348E0E42E43E0F42EFF92EF9284
:101780008E010F5F1F4F1F930F930E94F65BB801EE
:10179000C4010E94885B6CEE73E0C4010E94885B08
:1017A0008CE495E00E948D491F928F93FF92EF92F7
:1017B0001F930F930E94F65BB801C4010E94885BDF
:1017C0006CEE73E0C4010E94885B8CE495E00E949B
:1017D000AC491F928F93FF92EF921F930F930E9439
:1017E000F65BB801C4010E94885B6CEE73E0C40133
:1017F0000E94885B0FB6F894DEBF0FBECDBF05C058
:101800006EE372E0C4010E94885B80915A058823D0
:1018100009F491C08AE595E00E94BA491F928F931E
:1018200038E0E32E33E0F32EFF92EF928E010F5F4C
:101830001F4F1F930F930E94F65BB801C4010E94D3
:10184000885B6CEE73E0C4010E94885B8AE595E0DA
:101850000E94C8491F928F93FF92EF921F930F939C
:101860000E94F65BB801C4010E94885B6CEE73E0D5
:10187000C4010E94885B8AE595E00E94DE491F92C0
:101880008F93FF92EF921F930F930E94F65BB80124
:10189000C4010E94885B6CEE73E0C4010E94885B07
:1018A0008AE595E00E94FD491F928F93FF92EF9287
:1018B0001F930F930E94F65BB801C4010E94885BDE
:1018C0006CEE73E0C4010E94885B0FB6F894DEBF33
:1018D0000FBECDBF80915A05882379F00E947D4FBD
:1018E000C0906405D0906505E0906605F0906705AE
:1018F0006C197D098E099F0903C06FEF7FEFCB0143
:101900009F938F937F936F9388E093E09F938F9340
:101910001F930F930E94F65BB801C4010E94885B7D
:101920006CEE73E0C4010E94885B0FB6F894DEBFD2
:101930000FBECDBF05C06AE372E0C4010E94885BA0
:1019400080912A05882309F458C08AE295E00E9414
:10195000E0489E012F5F3F4F7901890124E046E076
:101960000E94135BB701C4010E94885B6CEE73E0B8
:10197000C4010E94885B8AE295E00E940C4924E041
:1019800046E00E94135BB701C4010E94885B6CEEC5
:1019900073E0C4010E94885B80912A05882379F056
:1019A0000E947D4F009148051091490520914A05FC
:1019B00030914B05601B710B820B930B03C06FEFD3
:1019C0007FEFCB019F938F937F936F9388E093E09A
:1019D0009F938F93FF92EF920E94F65BB701C40131
:1019E0000E94885B6CEE73E0C4010E94885B0FB6B6
:1019F000F894DEBF0FBECDBF05C06EE372E0C40138
:101A00000E94885B80918405882301F110928505EE
:101A100060918A0570918B0580918C0590918D0560
:101A20000E94445820E030E048EC52E40E94A9575C
:101A30008E010F5F1F4F20E041E00E94135BB80151
:101A4000C4010E94885B6CEE73E002C062E472E045
:101A5000C4010E94885B80919205882341F1109215
:101A6000930580919B058F9380919A058F93809128
:101A700099058F93809198058F9388E093E09F93C9
:101A80008F938E010F5F1F4F1F930F930E94F65B82
:101A9000B801C4010E94885B6CEE73E0C4010E942F
:101AA000885B0FB6F894DEBF0FBECDBF05C062E401
:101AB00072E0C4010E94885B8091A005882341F1F7
:101AC0001092A1058091A9058F938091A8058F930D
:101AD0008091A7058F938091A6058F9388E093E06E
:101AE0009F938F938E010F5F1F4F1F930F930E9441
:101AF000F65BB801C4010E94885B6CEE73E0C40120
:101B00000E94885B0FB6F894DEBF0FBECDBF05C044
:101B100062E472E0C4010E94885B80912A058823F8
:101B200009F446C08AE295E00E940C499B01AC0191
:101B30008AE295E02D873E874F87588B0E94E048C8
:101B400016E2A12E13EDB12E14E9C12E11E4D12E0F
:101B50001CEEE12E1FEEF12E08E412E42D853E85E9
:101B60004F8558890E94D94720E030E04AE754E485
:101B70000E94A9578E010F5F1F4F21E043E00E9492
:101B8000135BB801C4010E94885B60960FB6F8949D
:101B9000DEBF0FBECDBFDF91CF911F910F91FF90A0
:101BA000EF90DF90CF90BF90AF909F908F9008956F
:101BB00065E472E0C40160960FB6F894DEBF0FBE14
:101BC000CDBFDF91CF911F910F91FF90EF90DF90EC
:101BD000CF90BF90AF909F908F900C94885BCF92E6
:101BE000DF92EF92FF920F931F93CF93DF9300D07A
:101BF0001F921F92CDB7DEB76C010E94094F9F93D1
:101C00008F9358E0E52E53E0F52EFF92EF928E0170
:101C10000F5F1F4F1F930F930E94F65BB801C60121
:101C20000E94885B6CEE73E0C6010E94885B0E9494
:101C3000034F9F938F93FF92EF921F930F930E94F6
:101C4000F65BB801C6010E94885B6CEE73E0C601CA
:101C50000E94885B0E94FD4E9F938F93FF92EF92AC
:101C60001F930F930E94F65BB801C6010E94885B28
:101C70006CEE73E0C6010E94885B0E94EB4E9F935E
:101C80008F93FF92EF921F930F930E94F65BB80120
:101C9000C6010E94885B6CEE73E0C6010E94885BFF
:101CA0000E94F14E9F938F93FF92EF921F930F9399
:101CB0000E94F65BB801C6010E94885B6CEE73E07F
:101CC000C6010E94885B0E94F74E9F938F93FF92FC
:101CD000EF921F930F930E94F65B0FB6F894DEBF4E
:101CE0000FBECDBFB801C6010E94885B0F900F9058
:101CF0000F900F900F90DF91CF911F910F91FF9058
:101D0000EF90DF90CF900895EF92FF920F931F9383
:101D1000CF93DF93CDB7DEB72C970FB6F894DEBF25
:101D20000FBECDBF6CEE73E00E94855B10E00097A4
:101D300091F00E943A5BFE013196E10FF11DE10F37
:101D4000F11D918380831F5F6CEE73E080E090E073
:101D50000E94855BECCF163070F0E980FA800B8131
:101D60001C812D813E814B855C8569857A858F81BB
:101D700098850E940B4F2C960FB6F894DEBF0FBECD
:101D8000CDBFDF91CF911F910F91FF90EF900895FC
:101D9000CF92DF92EF92FF920F931F93CF93DF9337
:101DA00000D000D0CDB7DEB76C018091CE091F9274
:101DB0008F9368E0E62E63E0F62EFF92EF928E019D
:101DC0000F5F1F4F1F930F930E94F65BB801C60170
:101DD0000E94885B6CEE73E0C6010E94885BEFECAA
:101DE000F9E081818F9380818F93FF92EF921F930F
:101DF0000F930E94F65BB801C6010E94885B6CEEEF
:101E000073E0C6010E94885BE1EDF9E081818F9368
:101E100080818F93FF92EF921F930F930E94F65B46
:101E2000B801C6010E94885B6CEE73E0C6010E9497
:101E3000885B8091D3091F928F93FF92EF921F933B
:101E40000F930E94F65BB801C6010E94885B6CEE9E
:101E500073E0C6010E94885B8091D4091F928F9322
:101E6000FF92EF921F930F930E94F65BB801C60199
:101E70000E94885B0FB6F894DEBF0FBECDBF2696DA
:101E80000FB6F894DEBF0FBECDBFDF91CF911F918B
:101E90000F91FF90EF90DF90CF90089540E060E0C9
:101EA00087EA96E00E94094067E472E087EA96E0DC
:101EB0000E94765641E060E087EA96E00E94094081
:101EC0006CE572E087EA96E00E94765642E060E0B8
:101ED00087EA96E00E94094061E772E087EA96E0AF
:101EE0000E94765643E060E087EA96E00E9409404F
:101EF00067E472E087EA96E00C9476568091CA090E
:101F0000882389F0E0EBF9E020E030E08081280FC1
:101F1000311D359689E0EE3CF807C1F781E01216D5
:101F200013060CF080E00895E0EBF9E080E090818A
:101F3000911105C08F5F35968630C9F780E008950E
:101F4000AF92BF92CF92DF92EF92FF920F931F93C7
:101F5000CF93D4DF8093CA091092290510922805E7
:101F6000E3DF90E0909327058093260525E0289FE6
:101F7000F001299FF00D1124E055F64F808125E0F6
:101F8000829FC00111249093250580932405E09140
:101F9000A706F091A8060480F581E02D20E044E03A
:101FA00064E187EA96E0199587EA96E00E9403408B
:101FB00087EA96E00E94B7408091CA09882319F009
:101FC0006091CC0901C060E070E080E090E01F9279
:101FD0001F921F92CFEFCF93A12CB12C650114E675
:101FE000E12EF12C00E010E020E030E0A9010E9499
:101FF00090568DE00E9463506091CD0970E080E0C2
:1020000090E01F921F921F92CF9320E030E0A90131
:102010000E94905684E00E9463500E947D4F685158
:102020007C4F8F4F9F4F60930A0770930B078093ED
:102030000C0790930D0762DF8093CA098DB79EB796
:1020400008960FB6F8949EBF0FBE8DBFCF911F911B
:102050000F91FF90EF90DF90CF90BF90AF900895D9
:10206000DF92EF92FF920F931F93CF93DF93CDB741
:10207000DEB728970FB6F894DEBF0FBECDBF7C0148
:1020800060E070E08DE00E946350F2E3DF2E00E03C
:1020900010E085E40E943E50080F191FDA94C9F73A
:1020A000C8016AE070E00E94855A6A507109709315
:1020B000AB096093AA090E94FE058091AA0990913C
:1020C000AB09909349078093480761E084E10E943F
:1020D0003D0436DF8091AB098F938091AA098F93DD
:1020E00028E033E03F932F938E010F5F1F4F1F9324
:1020F0000F930E94F65BB801C7010E94885B0F90A6
:102100000F900F900F900F900F9028960FB6F894A5
:10211000DEBF0FBECDBFDF91CF911F910F91FF901A
:10212000EF90DF9008950CDF8091CA098111B6CE3F
:1021300008956F927F928F929F92AF92BF92CF92AB
:10214000DF92EF92FF920F931F93CF93DF9300D014
:1021500000D0CDB7DEB77C01B1E48B2EB9E09B2E69
:1021600018E0612E13E0712E8E010F5F1F4FA12C1E
:10217000B12CF401EA0DFB1DE559FF4F80811F9240
:102180008F93A8E0CA2EA3E0DA2E7F926F921F935E
:102190000F930E94F65BB801C7010E94885B6CEE4A
:1021A00073E0C7010E94885B8FEFA81AB80A0F90EE
:1021B0000F900F900F900F900F9095E0A916B1041B
:1021C000C1F685E0880E911C9FE5891699E0990675
:1021D00071F68091CA091F928F93DF92CF921F935D
:1021E0000F930E94F65BB801C7010E94885B6CEEFA
:1021F00073E0C7010E94885B8091CB091F928F9387
:10220000DF92CF921F930F930E94F65BB801C70134
:102210000E94885B6CEE73E0C7010E94885B80912E
:10222000CC091F928F93DF92CF921F930F930E943E
:10223000F65BB801C7010E94885B6CEE73E0C701D2
:102240000E94885B8091CD091F928F93DF92CF927D
:102250001F930F930E94F65BB801C7010E94885B31
:102260000FB6F894DEBF0FBECDBF26960FB6F8941A
:10227000DEBF0FBECDBFDF91CF911F910F91FF90B9
:10228000EF90DF90CF90BF90AF909F908F907F9016
:102290006F9008951F93CF93DF93CDB7DEB7A297CA
:1022A0000FB6F894DEBF0FBECDBF6CEE73E00E9498
:1022B000855B10E0009789F00E943A5BE1E0F0E076
:1022C000EC0FFD1FE10FF11D80831F5F6CEE73E0CB
:1022D00080E090E00E94855BEDCF123208F43FC0B1
:1022E0009E012F5F3F4F41E459E0BE01615E7F4F89
:1022F00080E090E0FA01E80FF91FE559FF4FD9019E
:10230000A80FB91FAC91A08301968530910591F774
:102310002B5F3F4F4B5F5F4F2617370749F781E031
:102320009F8D911101C080E08093CA0981E098A13E
:10233000911101C080E08093CB0989A18093CC09E1
:102340008AA18093CD090E94FE05A2960FB6F8944B
:10235000DEBF0FBECDBFDF91CF911F91F1CDA29611
:102360000FB6F894DEBF0FBECDBFDF91CF911F91A6
:1023700008956AE582E197E00E94074562E070E017
:1023800082E197E00E940E4582E197E00E9422469A
:1023900091E0811101C090E090934707992371F07B
:1023A0000E947D4F68517C4F8F4F9F4F609306076F
:1023B00070930707809308079093090708950E9478
:1023C0007D4F68517C4F8F4F9F4F609306077093EE
:1023D0000707809308079093090785EE97E00E940E
:1023E000473A672B682B692B39F58FE398E00E94F9
:1023F000473A672B682B692BF9F482E197E00E943A
:1024000012468823C9F082E197E00E944C45609310
:102410003F0770934007809341079093420782E102
:1024200097E00E9448456093430770934407809368
:10243000450790934607089508954F925F926F92D3
:102440007F928F929F92AF92BF92CF92DF92EF9244
:10245000FF920F931F93CF93DF93CDB7DEB72897EB
:102460000FB6F894DEBF0FBECDBF7C0194E4892E79
:1024700099E0992E2AE5622E29E0722E36E8432E45
:1024800032E0532E8E010F5F1F4F48E0A42E43E031
:10249000B42EF40186818F9385818F9384818F93ED
:1024A00083818F935F924F921F930F930E94F65BED
:1024B000B801C7010E94885B6CEE73E0C7010E94FF
:1024C000885BF401339781818F9380818F9388E0BB
:1024D000C82E83E0D82EBF92AF921F930F930E9415
:1024E000F65BB801C7010E94885B6CEE73E0C70120
:1024F0000E94885BF40180811F928F93BF92AF92FC
:102500001F930F930E94F65BB801C7010E94885B7E
:102510006CEE73E0C7010E94885BF4013197808103
:102520001F928F93BF92AF921F930F930E94F65BFF
:10253000B801C7010E94885B6CEE73E0C7010E947E
:10254000885BF40182818F9381818F93BF92AF92D8
:102550001F930F930E94F65B0FB6F894DEBF0FBE79
:10256000CDBFB801C7010E94885B6CEE73E0C70164
:102570000E94885BF3013F9780811F928F93BF92E7
:10258000AF921F930F930E94F65BB801C7010E94A0
:10259000885B6CEE73E0C7010E94885BF301808169
:1025A0001F928F93BF92AF921F930F930E94F65B7F
:1025B000B801C7010E94885B6CEE73E0C7010E94FE
:1025C000885BF40181858F9380858F93BF92AF9252
:1025D0001F930F930E94F65BB801C7010E94885BAE
:1025E0006CEE73E0C7010E94885B20E030E048ECAD
:1025F00052E4F40162897389848995890E94A25901
:102600000E9411587F936F93BF92AF921F930F93C5
:102610000E94F65BB801C7010E94885B6CEE73E014
:10262000C7010E94885BFAE18F0E911C8AE1680E57
:10263000711C0FB6F894DEBF0FBECDBFF8E78F1642
:10264000F9E09F0609F025CF80918B091F928F93A7
:10265000DF92CF921F930F930E94F65BB801C701E0
:102660000E94885B6CEE73E0C7010E94885B8091DA
:102670008C091F928F93DF92CF921F930F930E942A
:10268000F65BB801C7010E94885B6CEE73E0C7017E
:102690000E94885B80918D091F928F93DF92CF9269
:1026A0001F930F930E94F65BB801C7010E94885BDD
:1026B0006CEE73E0C7010E94885B80918E091F92C7
:1026C0008F93DF92CF921F930F930E94F65BB80116
:1026D000C7010E94885B6CEE73E0C7010E94885BB3
:1026E000809175091F928F93DF92CF921F930F9362
:1026F0000E94F65BB801C7010E94885B6CEE73E034
:10270000C7010E94885B809176091F928F93DF92A8
:10271000CF921F930F930E94F65B0FB6F894DEBF23
:102720000FBECDBFB801C7010E94885B6CEE73E09D
:10273000C7010E94885B809177091F928F93DF9277
:10274000CF921F930F930E94F65BB801C7010E94BE
:10275000885B6CEE73E0C7010E94885B80917E0904
:102760001F928F93DF92CF921F930F930E94F65B7D
:10277000B801C7010E94885B6CEE73E0C7010E943C
:10278000885B8091A6091F928F93DF92CF921F934F
:102790000F930E94F65BB801C7010E94885B6CEE44
:1027A00073E0C7010E94885B8091A7091F928F93F5
:1027B000DF92CF921F930F930E94F65BB801C7017F
:1027C0000E94885B6CEE73E0C7010E94885B809179
:1027D000A8091F928F93DF92CF921F930F930E94AD
:1027E000F65BB801C7010E94885B6CEE73E0C7011D
:1027F0000E94885B8091A9091F928F93DF92CF92EC
:102800001F930F930E94F65B0FB6F894DEBF0FBEC6
:10281000CDBFB801C7010E94885B28960FB6F89417
:10282000DEBF0FBECDBFDF91CF911F910F91FF9003
:10283000EF90DF90CF90BF90AF909F908F907F9060
:102840006F905F904F900895CF93DF93EC01CB0191
:10285000FB0122812A8343815481658176814B83E8
:102860005C836D837E8347815085618572854F834C
:10287000588769877A8743855485658576854B8730
:102880005C876D877E8747855089618972894F870C
:10289000588B698B7A8B43895489658976894B8BF0
:1028A0005C8B6D8B7E8B4789508D618D728D4F8BCC
:1028B000588F698F7A8F438D548D658D768D4B8FB0
:1028C0005C8F6D8F7E8F478D50A161A172A14F8F5C
:1028D00058A369A37AA343A154A165A176A14BA3F0
:1028E0005CA36DA37EA347A150A561A572A54FA3CC
:1028F00058A769A77AA723A534A53CA72BA725A588
:102900002DA726A52EA727A530A938AB2FA721A92B
:1029100032A93AAB29AB43A954A965A976A94BAB17
:102920005CAB6DAB7EAB47A950AD61AD72AD4FAB4B
:1029300058AF69AF7AAF43AD54AD65AD76AD4BAF2F
:102940005CAF6DAF7EAFFF96408151816281738134
:10295000FE01FF964083518362837383FC01ED5B2C
:10296000FF4F2081FE01ED5BFF4F2083FC01EC5BFC
:10297000FF4F2081FE01EC5BFF4F2083FC01EB5BEE
:10298000FF4F2081FE01EB5BFF4F2083DE01AA5B3E
:10299000BF4FFC01EA5BFF4F28E001900D922A95A2
:1029A000E1F7DE01A25BBF4FFC01E25BFF4F88E075
:1029B00001900D928A95E1F7CE01DF91CF910895B4
:1029C000CF938FEF8093BE048AE1E9E1F2E0A1E4C6
:1029D000B9E001900D928A95E1F78AE1E9E1F2E030
:1029E000ABE5B9E001900D928A95E1F7C1E0C093A3
:1029F000750910927609109277091092780984E18E
:102A000090E090937A09809379092FEF3FEF30930C
:102A10007C0920937B098AE580937D0910927E09C9
:102A20008DEC9CECACE4B0E480937F09909380093A
:102A3000A0938109B09382098093830990938409BC
:102A4000A0938509B093860980938709909388099C
:102A5000A0938909B0938A0983E080938B09C0937E
:102A60008C09C0938D09C0938E0983E393E3A3EB94
:102A7000BEE380938F0990939009A0939109B0933E
:102A800092098FE692E1A3E8BAE3809393099093C9
:102A90009409A0939509B09396098AE097EDA3E273
:102AA000BCE380939B0990939C09A0939D09B093EC
:102AB0009E0980E090E0A8ECB2E48093970990939F
:102AC0009809A0939909B0939A09C0939F093093EC
:102AD000A1092093A0091092A5091092A40982E3EC
:102AE0008093A3098FE58093A20981EF99E09093E9
:102AF000AB098093AA091092CA091092D3096AE817
:102B000072E085ED99E00E949C5B6BEE78E085EECB
:102B100097E09ADEC093E2078EE28093E10784E6B5
:102B200090E09093E4078093E30765E978E08FE312
:102B300098E08ADEC0933C088DE280933B088CE2EB
:102B400091E090933E0880933D08109227071092E1
:102B500028071092290710922A0710922B0710922B
:102B60002C0710922D0710922E078FEF9FEFDC019C
:102B700080932F0790933007A0933107B0933207CB
:102B800010923307109234071092350710923607CF
:102B900010923707109238071092390710923A07AF
:102BA00080933B0790933C07A0933D07B0933E076B
:102BB0001092640710924907109248071092560726
:102BC0001092570710925807109259071092520707
:102BD0001092530710925407109255071092510704
:102BE0001092500710924F0710924E0710924D0707
:102BF00010924C0710924B0710924A07EAE5F7E053
:102C000014861386168A158A10A2178E11921192B5
:102C100087E0E436F807A1F7CF910895CF92DF92CD
:102C2000FF920F931F93CF93DF93F82E8AE5F89EC0
:102C3000E0011124CB51D84F0F2D10E09AE1F99EFD
:102C400060011124F601EF5BF64F6F016081718125
:102C5000882777FD8095982F0E944458AB01BC01CE
:102C6000CE010E944E3DF60164817581882777FD73
:102C70008095982F0E944458AB01BC01CE010E9460
:102C8000B23D8F2D0E94C005AB01BC0177FF09C08A
:102C90004F2D60E070E0CB010E94B00540E050E0B5
:102CA000BA01CE010E945F3A8AE1809F6001819F54
:102CB000D00C1124C6018F5B964F6C01FC01618D15
:102CC000CE010E94403DF6016285CE01DF91CF9199
:102CD0001F910F91FF90DF90CF900C94453D2F9264
:102CE0003F924F925F926F927F928F929F92AF929C
:102CF000BF92CF92DF92EF92FF920F931F93CF93E9
:102D0000DF93CDB7DEB7C857D1090FB6F894DEBF51
:102D10000FBECDBF6CEE73E00E94855B8E010F5F2E
:102D20001F4FF12CE02ED12E009709F1BEE1FB16CA
:102D300081F00E94575BD8016D937D938D939D9395
:102D40008D01F3946CEE73E080E090E00E94855B6F
:102D5000EBCF0E2D1D2D51E4E52E59E0F52EC12CA3
:102D6000D12CA12CB12C312C222423941DC0ECE1B8
:102D7000EF1578F3C858DF4F0FB6F894DEBF0FBEDB
:102D8000CDBFDF91CF911F910F91FF90EF90DF901A
:102D9000CF90BF90AF909F908F907F906F905F90FB
:102DA0004F903F902F900895D8014D905D906D9079
:102DB0007C90F7014682578260867186C6018B51EE
:102DC000984F4C010E94593A4616570668067906F4
:102DD000A4F4D70116964D915D916D917C91199750
:102DE000C4010E945F3AF601EF51F84F2182C401FD
:102DF0000E94593A432D0E94B005F80184819581C3
:102E0000D7018D939C93F501EF5BF64FD80118968F
:102E10008C91189783831C968C911C978283509673
:102E20008D919C915197D70115969C938E931497F1
:102E3000D80154968C915497828758968C915897C4
:102E4000818F5C968D919C915D97F7019487838724
:102E500090966D917D918D919C9193970E9444588D
:102E600020E030E048EC52E40E94A957D701559683
:102E70006D937D938D939C935897832DCFDE3394E0
:102E80000C5D1F4FBAE1AB0EB11CEAE1EE0EF11C76
:102E9000FAE5CF0ED11C22E0321286CF2A968FADF2
:102EA0002A9780938B092E968FAD2E9780938C094D
:102EB00062968FAD629780938D0966968FAD669707
:102EC00080938E096A968FAD6A97809375096E9686
:102ED0008FAD6E9780937609A2968FADA29780935F
:102EE0007709A6968FADA69780937E09AA968FAD97
:102EF000AA978093A609AE968FADAE978093A70947
:102F0000E2968FADE2978093A809E6968FADE6979B
:102F10008093A9090E94FE05C858DF4F0FB6F894A8
:102F2000DEBF0FBECDBFDF91CF911F910F91FF90FC
:102F3000EF90DF90CF90BF90AF909F908F907F9059
:102F40006F905F904F903F902F900C94F3071F93DA
:102F5000CF93DF9380E062DE11E01093E20780916F
:102F600044092FEF829FC0011124C4E6D0E0BE01C6
:102F70000E94855A8091E1070E94635081E04EDEF5
:102F800010933C0880915E092FEF829FC0011124AD
:102F9000BE010E94855A80913B08DF91CF911F911D
:102FA0000C946350AF92BF92CF92DF92EF92FF9258
:102FB0000F931F93CF93DF936B017C01A42EB12C51
:102FC0008AE5489F80011124E801CB51D84FCE01FA
:102FD0000E94593AC616D706E806F906B9F1F7FC79
:102FE00011C08AE18A9DF0018B9DF00D1124EF5BE9
:102FF000F64F86819781A085B1858C159D05AE051C
:10300000BF0574F462E084E6DF91CF911F910F91C8
:10301000FF90EF90DF90CF90BF90AF900C943D0465
:1030200064817581882777FD8095982F0E94445888
:10303000AB01BC01CE010E94B23DB701A601CE0199
:103040000E94E33BF801EF51F84F1182DF91CF91DD
:103050001F910F91FF90EF90DF90CF90BF90AF90B6
:103060000895CF92DF92EF92FF920F931F93CF9329
:10307000DF936B017C01C0917609C230B1F441E06D
:10308000611571058105910509F440E021E060E1D9
:1030900077E28091BE04DF91CF911F910F91FF9055
:1030A000EF90DF90CF900C94D204D0E01AE11C9FF7
:1030B000F0011D9FF00D1124EF5BF64F8481958187
:1030C00065E070E00E94855A882777FD8095982FEB
:1030D0000E944458AB01BC010AE50C9FC0010D9F42
:1030E000900D11248B51984F0E94B23D209176098A
:1030F00030E0129FD001139FB00D1124AF5BB64F8B
:1031000012968C914FEF849FC001112464E670E009
:103110000E94855A029FF001039FF00D1124EF5188
:10312000F84F80810E94635040917609C701B60133
:1031300039DFE09176090E9FF0011124EF51F84F2D
:103140001182DF91CF911F910F91FF90EF90DF904F
:10315000CF90089587ED96E00E949F3F892BB1F0B4
:1031600087ED96E00E94693F892B71F4E091760922
:103170008AE1E89FF0011124EF5BF64F66817781C9
:10318000808591856EDF02C00E94750488EC96E010
:103190000E949F3F892B61F088EC96E00E94693F76
:1031A000892B21F460E070E0CB015BCF0C947504B7
:1031B000089585EE97E00E947C3C8FE398E00C94A4
:1031C0007C3C0F931F93CF93DF938C01462F60E0DD
:1031D00087EA96E00E940940E80114E1EADF69917C
:1031E000E091A706F091A8060190F081E02D87EA12
:1031F00096E01995115091F7DF91CF911F910F91A2
:103200000895DF92EF92FF920F931F93CF93DF9376
:10321000CDB7DEB765970FB6F894DEBF0FBECDBF52
:10322000F82E85EE97E00E94593A162F072FE82EC8
:10323000D92E8FE398E00E94593A9F938F937F9302
:103240006F93DF92EF920F931F932EE832E03F933C
:103250002F938E010F5F1F4F1F930F930E94F65BFA
:103260006F2DC801AEDF0FB6F894DEBF0FBECDBF25
:1032700065960FB6F894DEBF0FBECDBFDF91CF913C
:103280001F910F91FF90EF90DF9008957F928F92A2
:103290009F92AF92BF92CF92DF92EF92FF920F93E5
:1032A0001F93CF93DF93CDB7DEB76C970FB6F8942B
:1032B000DEBF0FBECDBF782E862E912C2AE5629FF1
:1032C00060011124C6018B51984F6C010E94593A3C
:1032D0005E01E6E1AE0EB11C0E9444582AE1289D31
:1032E0007001299DF00C112497012F5B364F790155
:1032F000F901258936894789508D0E94A25920E01D
:1033000030E04AE754E40E94A957850123E046E0F3
:103310000E94135BF70113850485C6010E94593A88
:103320000F931F93BF92AF929F938F937F936F934F
:10333000FFEF8F1A9F0A9F928F928FE992E09F93DF
:103340008F938E010F5F1F4F1F930F930E94F65BA9
:10335000672DC80136DF0FB6F894DEBF0FBECDBFB4
:103360006C960FB6F894DEBF0FBECDBFDF91CF9144
:103370001F910F91FF90EF90DF90CF90BF90AF9093
:103380009F908F907F90089560E080CF61E07ECF26
:103390009F92AF92BF92CF92DF92EF92FF920F93E4
:1033A0001F93CF93DF93CDB7DEB7A5970FB6F894F1
:1033B000DEBF0FBECDBF982E8091280590912905C4
:1033C00063E070E00E94855A892B09F45AC080910D
:1033D000C206882319F060EB72E002C064EB72E071
:1033E0008E010E5D1F4FC8010E949C5B8091C30639
:1033F000882319F060EB72E002C064EB72E07E019A
:103400008EE1E80EF11CC7010E949C5B8091C4060E
:10341000882319F060EB72E002C064EB72E06E0189
:103420009AE1C90ED11CC6010E949C5B8091C50621
:10343000882319F060EB72E002C064EB72E05E0179
:1034400086E1A80EB11CC5010E949C5BBF92AF92A1
:10345000DF92CF92FF92EF921F930F9328EB32E00F
:103460003F932F938E010F5F1F4F1F930F930E9467
:10347000F65B692DC801A5DE0FB6F894DEBF0FBE5E
:10348000CDBFA5960FB6F894DEBF0FBECDBFDF91BE
:10349000CF911F910F91FF90EF90DF90CF90BF9051
:1034A000AF909F9008955F926F927F928F929F92BC
:1034B000AF92BF92CF92DF92EF92FF920F931F9342
:1034C000CF93DF93CDB7DEB765970FB6F894DEBF25
:1034D0000FBECDBFF82E0E942D4F8E010F5F1F4FE4
:1034E000029781F50E94F74E682E592E0E94F14EE8
:1034F000882E792E0E94EB4EA82E992E0E94FD4E0A
:10350000C82EB92E0E94034FE82ED92E0E94094FD3
:103510005F926F927F928F929F92AF92BF92CF9263
:10352000DF92EF929F938F9329EC32E03F932F939A
:103530001F930F930E94F65B0FB6F894DEBF0FBE89
:10354000CDBF05C067EE72E0C8010E949C5B6F2D85
:10355000C80137DE65960FB6F894DEBF0FBECDBF4B
:10356000DF91CF911F910F91FF90EF90DF90CF905F
:10357000BF90AF909F908F907F906F905F900895D5
:10358000AF92BF92CF92DF92EF92FF920F931F9371
:10359000CF93DF93CDB7DEB764970FB6F894DEBF55
:1035A0000FBECDBF7C0105DE85EE97E00E94473A55
:1035B000162F072FD82EC92E85EE97E00E94593A74
:1035C000CF92DF920F931F939F938F937F936F936D
:1035D0008CEF92E09F938F938E010F5F1F4F1F938D
:1035E0000F930E94F65BB801C7010E94885BE1DD82
:1035F0008FE398E00E94473AD62EC72EB82EA92E08
:103600008FE398E00E94593AAF92BF92CF92DF9237
:103610009F938F937F936F9384E093E09F938F9317
:103620001F930F930E94F65BB801C7010E94885B4D
:10363000C0DD0FB6F894DEBF0FBECDBF64960FB6E7
:10364000F894DEBF0FBECDBFDF91CF911F910F91D8
:10365000FF90EF90DF90CF90BF90AF90089585EEF0
:1036600097E00E94473A672B682B692B61F48FE340
:1036700098E00E94473A21E0672B682B692B09F4F8
:1036800020E0822F089581E00895CF93DF931F9269
:10369000CDB7DEB7482F809128059091290562E0CB
:1036A00070E00E94855A892B99F04983D8DF4981BF
:1036B00081110EC060E087EA96E00E9409406CE547
:1036C00072E087EA96E00F90DF91CF910C947656E6
:1036D0000F90DF91CF910895BF92CF92DF92EF923A
:1036E000FF920F931F93CF93DF93CDB7DEB765970C
:1036F0000FB6F894DEBF0FBECDBFF82E809128051F
:103700009091290563E070E00E94855A892BA1F110
:10371000A6DF811131C08091C1060E948B07C82E9F
:10372000B92E8091C0060E948B07E82ED92E809179
:10373000BF060E948B07182F092F8091BE060E949A
:103740008B07BF92CF92DF92EF920F931F939F93BD
:103750008F932BE033E03F932F938E010F5F1F4F2A
:103760001F930F930E94F65B6F2DC8012ADD0FB6E1
:10377000F894DEBF0FBECDBF65960FB6F894DEBFDE
:103780000FBECDBFDF91CF911F910F91FF90EF90B2
:10379000DF90CF90BF9008954F925F926F927F928B
:1037A0008F929F92AF92BF92CF92DF92EF92FF9251
:1037B0000F931F93CF93DF93CDB7DEB7A4970FB6C8
:1037C000F894DEBF0FBECDBF782E462E809128051F
:1037D0009091290565E070E00E94855A892B09F4D3
:1037E0005FC03DDF81115CC066246394640C3DE0E2
:1037F000439E20011124C2018D57984F2C01FC01DA
:1038000080819E012F5F3F4F7901882309F440C0DA
:103810006E012CE1C20ED11CF201618172818381A3
:103820009481860121E045E00E94135B5E01F2E293
:10383000AF0EB11CF201658176818781908585018B
:1038400020E042E00E94135B4E01F6E18F0E911CD6
:10385000F2016185728583859485840121E045E0CC
:103860000E94135B9F928F92BF92AF92DF92CF9292
:103870001F926F9281E293E09F938F93FF92EF925A
:103880000E94F65B0FB6F894DEBF0FBECDBF05C039
:1038900063E373E0C7010E949C5B672DC70191DC65
:1038A000A4960FB6F894DEBF0FBECDBFDF91CF91C7
:1038B0001F910F91FF90EF90DF90CF90BF90AF904E
:1038C0009F908F907F906F905F904F90089560E0F1
:1038D00063CF61E061CF62E05FCF9F92AF92BF9212
:1038E000CF92DF92EF92FF920F931F93CF93DF93CC
:1038F000CDB7DEB7A1970FB6F894DEBF0FBECDBF30
:10390000982E809128059091290565E070E00E942D
:10391000855A892B09F447C0A2DE811144C08091E9
:1039200047079E012F5F3F4F79018823A1F16E0168
:103930002CE1C20ED11C60913F077091400780912D
:10394000410790914207860121E045E00E94135B08
:103950005E0136E1A30EB11C6091430770914407EC
:103960008091450790914607850121E045E00E943E
:10397000135BBF92AF92DF92CF9288E493E09F9364
:103980008F93FF92EF920E94F65B0FB6F894DEBF22
:103990000FBECDBF05C067E573E0C7010E949C5B09
:1039A000692DC7010EDCA1960FB6F894DEBF0FBEDD
:1039B000CDBFDF91CF911F910F91FF90EF90DF90DE
:1039C000CF90BF90AF909F9008953F924F925F929B
:1039D0006F927F928F929F92AF92BF92CF92DF921F
:1039E000EF92FF920F931F93CF93DF93CDB7DEB784
:1039F000AA970FB6F894DEBF0FBECDBF382E8091C8
:103A000028059091290565E070E00E94855A892B70
:103A100009F479C024DE811176C080912A059E01C7
:103A20002F5F3F4F7901882309F456C08AE295E061
:103A30000E94E0482B013C018AE295E00E940C497B
:103A40004B015C016E0120E2C20ED11C860124E014
:103A500047E0C301B2010E94135BCE0146969AA7CC
:103A600089A78C0124E048E0C501B4010E94135BE2
:103A700020E030E0A901C501B4010E945259181696
:103A80001CF409E614E002C001E814E020E030E094
:103A9000A901C301B2010E94525918161CF482EB0D
:103AA00092E002C08CE693E01F930F932AA52F9318
:103AB00039A53F939F938F93DF92CF928EE693E049
:103AC0009F938F93FF92EF920E94F65B0FB6F8944C
:103AD000DEBF0FBECDBF14C08091C7059091C80551
:103AE000A091C905B091CA05C297A105B10518F406
:103AF0006AE773E002C06FE873E0C7010E949C5B55
:103B0000632DC7015EDBAA960FB6F894DEBF0FBE29
:103B1000CDBFDF91CF911F910F91FF90EF90DF907C
:103B2000CF90BF90AF909F908F907F906F905F905D
:103B30004F903F900895BF92CF92DF92EF92FF9205
:103B40000F931F93CF93DF93CDB7DEB76D970FB66B
:103B5000F894DEBF0FBECDBFB82E8091280590919E
:103B6000290565E070E00E94855A892B09F47BC025
:103B700076DD811178C08091C7059091C805A0912C
:103B8000C905B091CA059E012F5F3F4F7901C297C9
:103B9000A105B10518F46AE773E061C08091920550
:103BA00081110CC080918405882309F456C066EA0F
:103BB00073E0CE014B960E94885B13C01092930570
:103BC000609198057091990580919A0590919B0557
:103BD0000E9442588E01055E1F4F20E042E00E9485
:103BE000135B809184059E012A5E3F4F6901882303
:103BF000C1F01092850560918A0570918B058091C6
:103C00008C0590918D050E94445820E030E048ECEE
:103C100052E40E94A957860120E044E00E94135B11
:103C200005C064EA73E0C9010E94885BCE014B962F
:103C30009F938F93DF92CF9289EA93E09F938F9324
:103C4000FF92EF920E94F65B0FB6F894DEBF0FBEB4
:103C5000CDBF6B2DC701B5DA06C06FE873E0C701B1
:103C60000E949C5BF6CF6D960FB6F894DEBF0FBE38
:103C7000CDBFDF91CF911F910F91FF90EF90DF901B
:103C8000CF90BF900895CF92DF92EF92FF920F9363
:103C90001F93CF93DF9300D000D0CDB7DEB76C0178
:103CA000EEE4F9E083818F9382818F9381818F93FA
:103CB00080818F9368E0E62E63E0F62EFF92EF920C
:103CC0008E010F5F1F4F1F930F930E94F65BB80189
:103CD000C6010E94885B6CEE73E0C6010E94885B9F
:103CE00020E030E048EC52E46091520970915309B1
:103CF00080915409909155090E94A2590E9411582F
:103D00007F936F93FF92EF921F930F930E94F65B46
:103D1000B801C6010E94885B6CEE73E0C6010E9488
:103D2000885BECE4F9E081818F9380818F93FF922F
:103D3000EF921F930F930E94F65BB801C6010E9499
:103D4000885B6CEE73E0C6010E94885BE8E6F9E0F0
:103D500083818F9382818F9381818F9380818F93D1
:103D6000FF92EF921F930F930E94F65BB801C6017A
:103D70000E94885B6CEE73E0C6010E94885B20E0C5
:103D800030E048EC52E460916C0970916D098091CB
:103D90006E0990916F090E94A2590E9411587F9359
:103DA0006F93FF92EF921F930F930E94F65B0FB6F3
:103DB000F894DEBF0FBECDBFB801C6010E94885B7C
:103DC0006CEE73E0C6010E94885BE6E6F9E0818153
:103DD0008F9380818F93FF92EF921F930F930E9496
:103DE000F65BB801C6010E94885B0F900F900F90A0
:103DF0000F900F900F9026960FB6F894DEBF0FBE6F
:103E0000CDBFDF91CF911F910F91FF90EF90DF9089
:103E1000CF900895CF93E3E8F7E0118612861386DA
:103E200014861582168217821086118212821382DE
:103E3000148210823D9687E0EA3AF80771F76091A4
:103E40000A028BEA97E00E946036892B29F481E010
:103E500080938307C1E001C0C0E060910B028BEA50
:103E600097E00E946036892B21F481E080939007CF
:103E7000C1E080EC97E00E94F33340E068EB77E02C
:103E800080EC97E00E947732882381F04AE068EB6B
:103E900077E080EC97E00E94803360E080EC97E070
:103EA0000E94543482E080939D0702C0CC2351F1DC
:103EB0000E947D4F6C507E4F8F4F9F4F6093E60660
:103EC0007093E7068093E8069093E9060E947D4F81
:103ED00064527A4F8F4F9F4F6093EE067093EF06B8
:103EE0008093F0069093F1060E947D4F6053784FC7
:103EF0008F4F9F4F6093F2067093F3068093F40602
:103F00009093F506CF9108950E947D4F68537F4F9F
:103F10008F4F9F4F6093EA067093EB068093EC06F9
:103F20009093ED0685EE97E00E94473A672B682B49
:103F3000692B91F48FE398E00E94473A672B682B36
:103F4000692B51F480919D07823031F468EB77E062
:103F500080EC97E00C94BF3408954F925F926F927B
:103F60007F92AF92BF92CF92DF92EF92FF920F9328
:103F70001F93CF93DF9300D01F92CDB7DEB7109180
:103F8000A209812F90E0A0E0B0E089839A83AB83FF
:103F9000BC836091A309462E512C612C712CE091B9
:103FA00077099DE0E99FF0011124ED57F84FC58096
:103FB000D680E780F084C301B2010E9444589B017F
:103FC000AC01C701B6010E94A25787FF03C0B2012E
:103FD000C30117C0612F70E080E090E00E94445858
:103FE0009B01AC01C701B6010E94525918162CF46E
:103FF00069817A818B819C8104C0C701B6010E94CE
:1040000011581F921F921F9224E62F93A12CB12CBE
:104010006501E980FA800B811C81A30192010E9455
:1040200090566093C6060F900F900F900F900F90D0
:104030000F900F900F90DF91CF911F910F91FF90F4
:10404000EF90DF90CF90BF90AF907F906F905F9098
:104050004F900895CF92DF92EF92FF920F931F93AC
:10406000CF93DF93C0917809D0E07DE0F72EFC9EDE
:10407000F001FD9EF00D1124ED57F84F808188234B
:1040800009F457C00091A0091091A1096091790924
:1040900070917A09882777FD8095982F17FD10C0B9
:1040A0000E944458F09EF001F19EF00D1124ED574E
:1040B000F84F21813281438154810E94DC5602C035
:1040C0000E9444586B017C0180917B0990917C098E
:1040D00097FD1DC02DE0289F8001299F100D112400
:1040E0000D57184F60917D0970E080E090E00E94CC
:1040F00044589B01AC01F8016581768187819085E8
:104100000E94525918161CF41092C70612C08DE076
:104110008C9FF0018D9FF00D1124ED57F84F6181B8
:10412000728183819481A70196010E946503809327
:10413000C706DF91CF911F910F91FF90EF90DF9015
:10414000CF9008950F931F93CF93DF9306DF82DF05
:10415000CEEBD6E000E112E06991F80181918F0188
:104160000E949507F6E0C23CDF07B1F7DF91CF91DF
:104170001F910F910895EF92FF920F931F93CF938A
:10418000DF9360E089E30E947B5160E088E30E9456
:104190007B5160E085E40E947B5160E084E40E94F2
:1041A0007B51C6EAD9E0E2ECEE2EE6E0FE2E0CE012
:1041B00012E08991F70181937F0161E0F80181911B
:1041C0008F010E947B51F9E0CA3ADF0791F70E9404
:1041D000470761E087E20E947B5161E087E20E942D
:1041E000B451CEEBD6E000E112E0199261E0F801A3
:1041F00081918F010E947B51F6E0C23CDF07A9F755
:104200001092C7061092C6069DDF0E94F3070E9417
:104210007D4F68537F4F8F4F9F4F6093F60670938B
:10422000F7068093F8069093F9068091AA09909179
:10423000AB099093490780934807DF91CF911F9175
:104240000F91FF90EF9008953F924F925F926F927F
:104250007F928F929F92AF92BF92CF92DF92EF9216
:10426000FF920F931F93CF93DF93382E082F10E008
:1042700081111DC00E947D4F6B017C0120914E0970
:1042800030914F094091500950915109A8EEB3E087
:104290000E94EB5AC60ED71EE81EF91EC092EE060B
:1042A000D092EF06E092F006F092F10620C00E9454
:1042B0007D4F6B017C018AE1809FF001819FF00DB1
:1042C0001124EF5BF64F2585368547855089A8EE8A
:1042D000B3E00E94EB5AC60ED71EE81EF91EC0922C
:1042E000F206D092F306E092F406F092F5068AE127
:1042F000809F6001819FD00C112496012F5B364F67
:10430000690120E030E0A901F601618972898389A1
:1043100094890E94A257882309F4EDC0F601838591
:10432000948597FDE8C08AE5809FE001819FD00DCC
:104330001124CB51D84FCE010E94473A672B682BEE
:10434000692B09F0D8C08CE0809F7001819FF00C30
:1043500011249701295D384F7901F90180849184F6
:10436000A284B384FFEF8F169F06AF06BF06E9F461
:10437000CE010E94593AF70160877187828793873F
:10438000F601838594852DE0289FF001299FF00D8B
:104390001124ED57F84F81819281A381B481F701F7
:1043A00080839183A283B383A2C0F6018385948521
:1043B0002DE0289FF001299FF00D1124ED57F84FB3
:1043C0004180528063807480A3019201F70164816F
:1043D0007581868197810E94DB566B017C0120E00C
:1043E00030E0A9010E94525918165CF420E030E038
:1043F00040E05FE3C701B6010E94525918165CF015
:104400007AC020E030E040E05FEBC701B6010E94D7
:10441000A25787FF70C0C501B4010E9444586B01C8
:104420007C018CE0809F4001819F900C11249401BD
:10443000295D384F4901F901208131814281538141
:10444000C301B2010E94DB562AE1209F5001219F47
:10445000B00C112495012F5B364F5901F9012189C8
:104460003289438954890E94A2599B01AC01C7013A
:10447000B6010E94DC560E9411586B017C01F501C7
:1044800064817581882777FD8095982F0E94445814
:10449000AB01BC01CE010E94B23DF5018281FFEF6C
:1044A0008F9FC001112464E670E00E94855A8AE55E
:1044B000809FF001819FF00D1124EF51F84F808112
:1044C0000E946350432DC701B6010E94D217F50127
:1044D000838594852DE0289FF001299FF00D1124FC
:1044E000ED57F84F81819281A381B481F4018483D7
:1044F0009583A683B783DF91CF911F910F91FF9092
:10450000EF90DF90CF90BF90AF909F908F907F9073
:104510006F905F904F903F90089580E095CE81E03E
:1045200093CECF92DF92EF92FF92CF93DF93C82F7B
:10453000D0E09CE0899FF0011124E95DF84F1082E2
:1045400011821282138214821582168217824FEF13
:104550005FEFBA014087518762877387811121C05D
:104560000E947D4F6B017C018AE18C9FF0018D9F41
:10457000F00D1124EF5BF64F258536854785508970
:10458000A8EEB3E00E94EB5AC60ED71EE81EF91E35
:10459000C092EE06D092EF06E092F006F092F1069D
:1045A00020C00E947D4F6B017C018AE18C9FF0014D
:1045B0008D9FF00D1124EF5BF64F258536854785DD
:1045C0005089A8EEB3E00E94EB5AC60ED71EE81E33
:1045D000F91EC092F206D092F306E092F406F09231
:1045E000F506DF91CF91FF90EF90DF90CF90089587
:1045F000DF92EF92FF920F931F93CF93DF93D82E0A
:10460000C82FD0E02AE5829F80011124C8018B5178
:10461000984F7C010E94473A672B682B692B81F5E4
:104620000F51184FF801818181112AC0C7010E94E2
:10463000593A4D2D0E94B00581E0F801818361E077
:1046400084E10E943D048AE18C9FF0018D9FF00D72
:104650001124EF5BF64F8381FFEF8F9FC001112480
:1046600064E670E00E94855AF80180810E946350E0
:104670008091AA07882321F08D2D53DF1092AA077D
:10468000DF91CF911F910F91FF90EF90DF900895F0
:104690000E94D91880E0ACDF81E0AADF0E94AA184E
:1046A0008BED95E00C94993E1F93CF93DF93CDB79C
:1046B000DEB72C970FB6F894DEBF0FBECDBF6CEE01
:1046C00073E00E94855B10E0009791F00E943A5BD6
:1046D000FE013196E10FF11DE10FF11D9183808301
:1046E0001F5F6CEE73E080E090E00E94855BECCF92
:1046F000153008F463C089819A81AA2797FDA09597
:10470000BA2F80934E0990934F09A0935009B0930C
:1047100051096B817C81882777FD8095982F0E94B5
:10472000445820E030E048EC52E40E94A9576093DE
:1047300052097093530980935409909355098D81C0
:104740009E8190934D0980934C098F819885AA276B
:1047500097FDA095BA2F8093680990936909A0935B
:104760006A09B0936B0969857A85882777FD8095FA
:10477000982F0E94445820E030E048EC52E40E9418
:10478000A95760936C0970936D0980936E0990939B
:104790006F098B859C8590936709809366090E94B9
:1047A000FE0580E0BEDE81E02C960FB6F894DEBFF9
:1047B0000FBECDBFDF91CF911F91B3CE2C960FB618
:1047C000F894DEBF0FBECDBFDF91CF911F9108954A
:1047D0004F925F926F927F928F929F92AF92BF9211
:1047E000CF92DF92EF92FF926B017C01CA01B90177
:1047F0002AE037ED43E25CE30E94A2590E9462592D
:104800004B015C0122E03BE24AE851E4C701B601FA
:104810000E94A2592B013C0123E333EB4DE653E404
:10482000C701B6010E94DC569B01AC01C301B20175
:104830000E94A957A50194010E94DC566B017C01DE
:1048400023E333EB4DE653E40E94A2594B015C0194
:10485000A701960162E07BE28AE891E40E94DB56C0
:104860009B01AC01C501B4010E94A957FF90EF90D4
:10487000DF90CF90BF90AF909F908F907F906F9080
:104880005F904F9008950F931F93CF93DF930E94F3
:104890007D4F68517C4F8F4F9F4F6093E60670931A
:1048A000E7068093E8069093E90685EE97E00E947C
:1048B000473A672B682B692B09F060C08FE398E0BB
:1048C0000E94473A672B682B692B09F057C0C3E851
:1048D000D7E00AE012E019861A861B861C861D8224
:1048E0001E821F82188619821A821B821C8288816E
:1048F000813031F5F80160818BEA97E00E946036E3
:10490000892B51F56091AF077091B0078091B10785
:104910009091B20769837A838B839C832091AB0744
:104920003091AC074091AD075091AE072D833E8387
:104930004F8358874DDF69877A878B879C870CC0A8
:10494000823051F468EB77E080EC97E00E94A73565
:1049500069837A838B839C832D960F5F1F4FF7E0CB
:10496000CA3ADF0709F0B7CF8091470781110E944B
:10497000DF11DF91CF911F910F91E4CBDF91CF91A8
:104980001F910F910895EF92FF920F931F93CF9372
:10499000DF9300D000D0CDB7DEB77C0180918307D4
:1049A00081110BC08091900781110AC080919D07F1
:1049B000882361F122E030E005C020E030E002C051
:1049C00021E030E08DE0829FF001839FF00D112403
:1049D000ED57F84F61817281838194818E010F5F61
:1049E0001F4F21E043E00E94135BB801C7010E9402
:1049F000885B26960FB6F894DEBF0FBECDBFDF9161
:104A0000CF911F910F91FF90EF9008956CEB73E0A1
:104A1000C70126960FB6F894DEBF0FBECDBFDF915B
:104A2000CF911F910F91FF90EF900C94885BEF92C4
:104A3000FF920F931F93CF93DF9300D000D0CDB799
:104A4000DEB77C0180918307813059F08091900717
:104A5000813051F080919D07813061F522E030E096
:104A600005C020E030E002C021E030E08DE0829F10
:104A7000F001839FF00D1124ED57F84F6581768189
:104A8000878190858E010F5F1F4F21E043E00E94D8
:104A9000135BB801C7010E94885B26960FB6F89495
:104AA000DEBF0FBECDBFDF91CF911F910F91FF9061
:104AB000EF9008956CEB73E0C70126960FB6F8945B
:104AC000DEBF0FBECDBFDF91CF911F910F91FF9041
:104AD000EF900C94885BEF92FF920F931F93CF930C
:104AE000DF9300D000D0CDB7DEB77C018091830783
:104AF000813059F080919007813051F080919D076D
:104B0000813061F522E030E005C020E030E002C0F5
:104B100021E030E08DE0829FF001839FF00D1124B1
:104B2000ED57F84F61857285838594858E010F5FFF
:104B30001F4F21E043E00E94135BB801C7010E94B0
:104B4000885B26960FB6F894DEBF0FBECDBFDF910F
:104B5000CF911F910F91FF90EF9008956CEB73E050
:104B6000C70126960FB6F894DEBF0FBECDBFDF910A
:104B7000CF911F910F91FF90EF900C94885B2BE0E9
:104B800039E24AE050E060E070E08BED95E00C9493
:104B9000FB3ECF93DF93CDB7DEB72E970FB6F894D9
:104BA000DEBF0FBECDBFFC0120812053BC016E5F74
:104BB0007F4F48E050E0CE0101962E870E94A35B14
:104BC000CE0101960E94575B6A877B878C879D8701
:104BD000362F472F582F692F2E8570E080E090E008
:104BE0002E960FB6F894DEBF0FBECDBFDF91CF91EA
:104BF00008950F931F93CF93DF9300D01F921F92BE
:104C0000CDB7DEB78C01C5DFF8018081823369F052
:104C10002CF4813379F430938B090CC0833341F049
:104C2000843341F430938E0905C030938C0902C05F
:104C300030938D090E94FE050F900F900F900F90FA
:104C40000F90DF91CF911F910F910C94F307CF93A9
:104C5000DF9300D01F921F92CDB7DEB79ADFE22F0D
:104C6000F0E0E254F94F30830F900F900F900F90C7
:104C70000F90DF91CF9166CACF92DF92EF92FF92B1
:104C80000F931F93CF93DF9300D000D0CDB7DEB743
:104C900080DF3A834B835C836D83E22EF12C3AE113
:104CA000239F800111240F5B164FF80164817581E9
:104CB000882777FD8095982F2E830E944458AB015A
:104CC000BC013AE53E9D60013F9DD00C1124C60118
:104CD0008B51984F0E94B23DF8018281FFEF8F9F68
:104CE000C001112464E670E00E94855AF601EF517C
:104CF000F84F80810E94635081E08093AA076A8107
:104D00007B818C819D812E81422F26960FB6F8944F
:104D1000DEBF0FBECDBFDF91CF911F910F91FF90EE
:104D2000EF90DF90CF900C94D217EF92FF920F93F9
:104D30001F93CF93DF9300D000D0CDB7DEB729DF2C
:104D40003A834B835C836D838AE5289F700111242D
:104D500087010B51184F4A815B816C817D81C801AD
:104D60002E830E945F3AF701EF51F84F81E0818373
:104D7000C8010E94593A2E81422F26960FB6F89408
:104D8000DEBF0FBECDBFDF91CF911F910F91FF907E
:104D9000EF900C94B005CF93DF9300D01F921F9239
:104DA000CDB7DEB7F6DEE22FF0E0E254F94F348300
:104DB0000F900F900F900F900F90DF91CF910C9468
:104DC0004707CF92DF92EF92FF92CF93262FFC01FD
:104DD000C0E060E070E0CB01C21761F0C190D190FB
:104DE000EE24D7FCE094FE2C6C0D7D1D8E1D9F1DC6
:104DF000CF5FF2CF0E9444586B017C016C2F70E0B2
:104E000080E090E00E9442589B01AC01C701B601CE
:104E10000E94A957CF91FF90EF90DF90CF90089517
:104E20004F925F926F927F929F92AF92BF92CF927A
:104E3000DF92EF92FF920F931F93CF93DF93CDB743
:104E4000DEB7A3970FB6F894DEBF0FBECDBF982E86
:104E5000809128059091290563E070E00E94855AB1
:104E6000892B09F47CC040907F09509080096090A4
:104E700081097090820965E085E697E0A2DF7E01F6
:104E80002BE1E20EF11C20E030E040EA5BE30E94FF
:104E9000A2599B01AC01C301B2010E94A259870132
:104EA00021E044E00E94135B409083095090840904
:104EB000609085097090860965E08FE697E081DF54
:104EC0006E0126E1C20ED11C20E030E040EA5BE337
:104ED0000E94A2599B01AC01C301B2010E94A259D8
:104EE000860121E044E00E94135B409083095090CA
:104EF0008409609085097090860965E089E797E0EC
:104F000060DF5E0120E2A20EB11C20E030E040EA4A
:104F10005BE30E94A2599B01AC01C301B2010E9454
:104F2000A259850121E043E00E94135BBF92AF923A
:104F3000DF92CF92FF92EF9282EC93E09F938F9358
:104F40000F5111091F930F930E94F65B692DC80141
:104F50000E94E1180FB6F894DEBF0FBECDBFA39636
:104F60000FB6F894DEBF0FBECDBFDF91CF911F917A
:104F70000F91FF90EF90DF90CF90BF90AF909F90F8
:104F80007F906F905F904F900895562F40E060E0C3
:104F900070E0451741F0FC0121913191CF01620F82
:104FA000731F4F5FF6CF8091480790914907681BA8
:104FB000790B882777FD8095982F0E94445820E030
:104FC00030E040E251E40E94A25920E030E040E8A5
:104FD0005AE30C94A2590895BF92CF92DF92EF92B8
:104FE000FF920F931F93CF93DF93CDB7DEB7A297B6
:104FF0000FB6F894DEBF0FBECDBFB82E8091280546
:105000009091290563E070E00E94855A892BE9F1AF
:1050100065E08AE597E0B9DF7E012DE1E20EF11C43
:10502000870122E044E00E94135B6E0186E1C80E16
:10503000D11C609152077091530780915407909151
:1050400055070E94445820E030E044EB58E40E94A9
:10505000A957860122E046E00E94135BDF92CF92BF
:10506000FF92EF9282ED93E09F938F930551110988
:105070001F930F930E94F65B6B2DC8010E94E118ED
:105080000FB6F894DEBF0FBECDBFA2960FB6F89450
:10509000DEBF0FBECDBFDF91CF911F910F91FF906B
:1050A000EF90DF90CF90BF9008950F931F93CF9311
:1050B000DF9395E0899F800111240F5B164FC0E0BC
:1050C000D0E08C2FF801EC0FFD1FE559FF4F408118
:1050D00050E0FA013197EF30F10560F5EE58FF4FDF
:1050E0000C94D65A0E94011928C00E94C41925C0E8
:1050F0000E94C61922C00E946C1B1FC06DDF1DC01C
:105100000E94C8191AC00E94671C17C00E94691C1F
:1051100014C00E946B1C11C00E946D1C0EC00E9426
:10512000531A0BC07DDE09C00E94E51C06C00E9418
:105130009B1D03C08C2F0E94451B2196C430D105B6
:1051400009F0BFCFDF91CF911F910F9108950E9479
:105150007D4F68537F4F8F4F9F4F60930A07709327
:105160000B0780930C0790930D078091CA09882341
:1051700009F450C08091CB09882321F00E942F1B95
:10518000811148C08091260590DF2091280530913B
:10519000290580912405909125052817390724F1C8
:1051A0000E942F1B882351F11FC02150310981F02B
:1051B00001968630910514F080E090E0589FF00150
:1051C000599FF00D1124E055F64F4081442369F3B7
:1051D000909327058093260525E0429FC001112466
:1051E00090932505809324058091280590912905A9
:1051F000019690932905809328050895109229051A
:105200001092280580912605909127052AE030E02C
:1052100055E0CECF08950F931F93CF93DF9300D027
:105220001F92CDB7DEB70E947D4F0091E606109128
:10523000E7062091E8063091E906011511052105E0
:105240003105B9F0061717072807390790F41092AF
:10525000E6061092E7061092E8061092E9066983C6
:105260007A838B839C830E94841F9C818B817A81AB
:1052700069810091EA061091EB062091EC063091CD
:10528000ED060115110521053105B1F006171707C7
:105290002807390788F41092EA061092EB0610925C
:1052A000EC061092ED0669837A838B839C83EBDA9C
:1052B0009C818B817A8169810091EE061091EF06C5
:1052C0002091F0063091F1060115110521053105F7
:1052D000B1F0061717072807390788F41092EE0671
:1052E0001092EF061092F0061092F10669837A830D
:1052F0008B839C8312D99C818B817A8169810091F7
:10530000F2061091F3062091F4063091F50601158E
:10531000110521053105B1F00617170728073907D0
:1053200088F41092F2061092F3061092F40610928E
:10533000F50669837A838B839C83F1D89C818B816A
:105340007A8169810091F6061091F7062091F8069E
:105350003091F9060115110521053105B9F006173F
:1053600017072807390790F41092F6061092F706EF
:105370001092F8061092F90669837A838B839C83D6
:105380000E9494069C818B817A8169810091FA0642
:105390001091FB062091FC063091FD0601151105C8
:1053A0002105310579F0061717072807390750F44A
:1053B0001092FA061092FB061092FC061092FD065F
:1053C0001092BF040091FE061091FF062091000785
:1053D000309101070115110521053105B9F00617B6
:1053E00017072807390790F41092FE061092FF065F
:1053F000109200071092010769837A838B839C8344
:105400000E9468049C818B817A81698100910207E6
:10541000109103072091040730910507011511052C
:1054200021053105B9F0061717072807390790F449
:1054300010920207109203071092040710920507BA
:1054400069837A838B839C830E94CA049C818B81AD
:105450007A8169810091060710910707209108075A
:10546000309109070115110521053105B9F006171D
:1054700017072807390790F41092060710920707BC
:10548000109208071092090769837A838B839C83A3
:105490000E94DF119C818B817A81698100910A07CA
:1054A00010910B0720910C0730910D070115110584
:1054B00021053105B1F0061717072807390788F4C9
:1054C00010920A0710920B0710920C0710920D070A
:1054D0000F900F900F900F90DF91CF911F910F9130
:1054E00036CE0F900F900F900F90DF91CF911F91BC
:1054F0000F9108958F929F92AF92BF92CF92DF92B9
:10550000EF92FF920F931F93CF93DF93CDB7DEB748
:1055100064970FB6F894DEBF0FBECDBF4C010E945A
:10552000D91885EE97E00E94473A162F072FF82EDC
:10553000E92E85EE97E00E94593AEF92FF920F9381
:105540001F939F938F937F936F930CEF12E01F93A2
:105550000F939E012F5F3F4F5901BF922F930E94DF
:10556000F65BB501C4010E94885B0E94D9188FE3E5
:1055700098E00E94473AF62EE72ED82EC92E8FE3E8
:1055800098E00E94593ACF92DF92EF92FF929F9358
:105590008F937F936F931F930F93BF92AF920E944D
:1055A000F65BB501C4010E94885B0E94D91865E0D2
:1055B0008AE597E0EADC850122E044E00E94135B83
:1055C000B501C4010E94885B6CEE73E0C4010E94C7
:1055D000885B0E94D91885EE97E00E94473A0FB683
:1055E000F894DEBF0FBECDBF672B682B692B09F087
:1055F000B3C18FE398E00E94473A672B682B692B71
:1056000009F0AAC1F3E8EF2EF7E0FF2EAAEECA2EAA
:10561000A3E0DA2EF70180811F928F93DF92CF9261
:10562000BF92AF920E94F65BB501C4010E94885BF5
:10563000F7016181728183819481850121E043E0DA
:105640000E94135BB501C4010E94885B6CEE73E09D
:10565000C4010E94885BF70165817681878190850E
:1056600021E043E00E94135BB501C4010E94885B06
:105670006CEE73E0C4010E94885BF701618572855E
:105680008385948521E043E00E94135BB501C4014A
:105690000E94885B6CEE73E0C4010E94885BFDE0B1
:1056A000EF0EF11C0F900F900F900F900F900F9036
:1056B0002AEAE21627E0F20609F0ACCF8091C10693
:1056C0000E948B07D82EC92E8091C0060E948B079E
:1056D000F82EE92E8091BF060E948B07182F092F04
:1056E0008091BE060E948B07CF92DF92EF92FF92CD
:1056F0000F931F939F938F9301EE13E01F930F93CC
:10570000BF92AF920E94F65BB501C4010E94885B14
:105710008091C5061F928F938091C4061F928F932C
:105720008091C3061F928F938091C2061F928F9320
:105730001F930F93BF92AF920E94F65BB501C40115
:105740000E94885BC0907F09D0908009E090810919
:10575000F090820965E085E697E033DB20E030E0F9
:1057600040EA5BE30E94A2599B01AC01C701B6016C
:105770000E94A259850121E043E00E94135BB5011C
:10578000C4010E94885B6CEE73E0C4010E94885BD8
:10579000C0908309D0908409E0908509F090860933
:1057A00065E08FE697E00DDB20E030E040EA5BE368
:1057B0000E94A2599B01AC01C701B6010E94A259E7
:1057C00021E043E00E94135BB501C4010E94885BA5
:1057D0006CEE73E0C4010E94885BC0908709D09092
:1057E0008809E0908909F0908A0965E089E797E0E7
:1057F000E8DA20E030E040EA5BE30E94A2599B0136
:10580000AC01C701B6010E94A25921E043E00E9409
:10581000135BB501C4010E94885B6CEE73E0C401A8
:105820000E94885B609152077091530780915407E2
:10583000909155070E94445820E030E044EB58E432
:105840000E94A95722E044E00E94135BB501C40105
:105850000E94885B6CEE73E0C4010E94885B20E0CC
:1058600030E040E95CE46091560770915707809101
:105870005807909159070E94A95720917F093091AC
:10588000800940918109509182090E94A25922E029
:1058900044E00E94135BB501C4010E94885B6CEE7A
:1058A00073E0C4010E94885B8AE30E94E9510FB64D
:1058B000F894DEBF0FBECDBF019749F08BE30E9485
:1058C000E95131E020E0019721F030E002C031E001
:1058D00020E02F933F9388E093E09F938F93BF92B4
:1058E000AF920E94F65BB501C4010E94885B0F90E5
:1058F0000F900F900F900F900F9080914707882383
:1059000059F16CEE73E0C4010E94885B609143071B
:10591000709144078091450790914607850121E0E9
:1059200043E00E94135BB501C4010E94885B6CEEEA
:1059300073E0C4010E94885B60913F07709140074B
:10594000809141079091420721E043E00E94135B60
:10595000B501C4010E94885B64960FB6F894DEBF5F
:105960000FBECDBFDF91CF911F910F91FF90EF90B0
:10597000DF90CF90BF90AF909F908F900895CF927F
:10598000EF920F93CC24C394BEE3EB2E0CE32FE3F2
:105990004DE368E08BEE98E00E94A73C02E4E02E25
:1059A00000E423E441E468E085E998E00E94A73C34
:1059B00085E0E82E04E023E042E064E085EE97E035
:1059C0000E94A73C23E042E064E08FE398E00E945D
:1059D000A73C65E083ED97E0ABD463ED77E080EC26
:1059E00097E068D582E197E00E94F6442EE130E02E
:1059F00040E050E066E387ED96E00E944D3F2EE1E7
:105A000030E040E050E067E388EC96E00E944D3FD4
:105A10009CE1C92E2BE1E22E0AE129E148E167E190
:105A200087EA96E00E947C418BED95E00E94863EDD
:105A30008AE295E00F91EF90CF900C9452468091BE
:105A4000D309882391F08091CE09811108958AE5C8
:105A50009BE00E941352181619063CF48AE59BE05D
:105A60000E942C520E946B0BF2CF08958091D309B3
:105A7000882391F08091CE09813071F487EF9BE00B
:105A80000E941352181619063CF487EF9BE00E94FF
:105A90002C520E946B0BF2CF08958091D30988237A
:105AA00091F08091CE09823071F484E99CE00E94EB
:105AB0001352181619063CF484E99CE00E942C52FB
:105AC0000E946B0BF2CF0895CF93DF938091CF09A3
:105AD0009091D0098130910529F0029731F0C0EC06
