:1000000030C300005FC300005DC300005BC300009D
:1000100059C3000057C3000055C3000053C300007C
:1000200051C300004FC300004DC300004BC300008C
:1000300049C3000047C3000045C3000043C300009C
:1000400041C300003FC300003DC300003BC30000AC
:1000500039C3000037C3000035C300000C949B4E29
:1000600031C300000C94F7520C942D532BC30000A5
:1000700029C3000027C3000025C3000023C30000DC
:1000800021C300001FC300001DC300001BC30000EC
:100090000C94A2530C94D85315C300000C94304315
:1000A00011C300000FC300000DC300000BC300000C
:1000B00009C3000007C3000005C3000003C300001C
:1000C00001C30000FFC20000FDC200000C944D54AB
:1000D0000C948354F7C200000C94F8540C942E55E1
:1000E000F1C200009426C827C827C827C827C827F8
:1000F000C827C827C827C827C827C827C827C82788
:10010000C827C827C827C827C827C827C827C82777
:10011000C827C827C827C827C827C827C827C82767
:10012000A32741274D27C827292755275827EA26DF
:10013000C82714277727E42699278D279527C626D1
:10014000A9279B26B927C8278527B127C827C127F4
:10015000C827C827C827C827C827C827C827C82727
:100160007D272D2744272227252750275C271F2757
:10017000C926F926C827E1269F27892791279E2689
:100180007A27C427B5271C278127AD27C827BD2775
:10019000672E4A2E4C2E4E2E502E522E542E562E58
:1001A000582E5A2E5C2E5E2E602E622E642E7837CC
:1001B0007F3786378D379437AB379B37AB37A237CE
:1001C000CC4AD84ADC4AE24AE74AFB4A044B0A4B8B
:1001D0000F4B144B144B144B144B144B144B144B2C
:1001E000144B144B144B144B144B144B144B144B17
:1001F000144B144B144B144B144B144B144B144B07
:10020000CC4AD14AD84ADC4AE24AE74AED4AF14AA6
:10021000F64A015006500B5015501F509850295067
:100220003150395043504D5057506650705098508F
:100230007A5084508E50BA50BD50AC50B050B65029
:10024000F450C150C550CB50CF50D350D950DD5091
:10025000E150F450E750EB50EF50084AD73B3BCE0B
:10026000016E84BCBFFDC12F3D6C74319ABD5683B5
:100270003DDA3D00C77F11BED9E4BB4C3E916BAA6D
:10028000AABE000000803F05A84CCDB2D44EB938BC
:1002900036A9020C50B9918688083CA6AAAA2ABEA3
:1002A000000000803F08000000BE922449123EABCF
:1002B000AAAA2ABECDCCCC4C3E00000080BEABAA80
:1002C000AAAA3E00000000BF000000803F0000001E
:1002D0000000084178D3BB4387D1133D190E3CC3BE
:1002E000BD4282AD2B3E68EC8276BED98FE1A93E3D
:1002F0004C80EFFFBE01C4FF7F3F00000000000004
:10030000005EBCE2613FDD83C29C7E20A3FD1F41F5
:100310009DC3217FFCA2401E5F01E3BD3E6082DCE5
:10032000237D9FC1421CFEA0E1BF5D0380DE3C62D5
:10033000BEE0025CDF81633D7C22C09E1D43A1FFC5
:100340004618FAA427799BC584DA3866E5BB5907B5
:10035000DB856739BAE406581947A5FB7826C49AA5
:10036000653BD987045AB8E6A7F91B45C6987A2495
:10037000F8A6441A99C7257B3A6486D85B05E7B985
:100380008CD2306EEDB3510F4E10F2AC2F7193CD75
:10039000114FADF3702ECC92D38D6F31B2EC0E5065
:1003A000AFF1134DCE90722C6D33D18F0C52B0EE55
:1003B000326C8ED0530DEFB1F0AE4C1291CF2D7345
:1003C000CA947628ABF517490856B4EA6937D58B35
:1003D0005709EBB536688AD495CB2977F4AA481625
:1003E000E9B7550B88D6346A2B7597C94A14F6A815
:1003F000742AC896154BA9F7B6E80A54D7896B3505
:1004000000000A0B02090C0D0E080703040100008E
:1004100000000000000000000000000000000000DC
:100420000000000000000000000000001211100099
:1004300000000000000000000000000000000000BC
:1004400000000000000001021020200808102040D9
:100450001020408002010201080402010102040888
:100460001020408080402010080402018004020116
:10047000804020100804020108040201010204085F
:100480001020408001020408102040800505050569
:10049000070508080808020202020A0A08080404FC
:1004A000040401010101010101010303030303032A
:1004B0000303040707070C0C0C0C0C0C0C0C0202B9
:1004C000020206060606060606060B0B0B0B0B0BB6
:1004D0000B0B000020002300260029002C002F0019
:1004E00032000001000003010601090100002200A2
:1004F000250028002B002E003100340002010000EE
:10050000050108010B0100002100240027002A003A
:100510002D003000330001010000040107010A0131
:100520004E414E494E495459494E46CDCCCC3D0AD8
:10053000D7233C17B7D13877CC2B329595E6241FBB
:10054000B14F0A000020410000C84200401C462074
:10055000BCBE4CCA1B0E5AAEC59D7400407A10F347
:100560005A00A0724E18090010A5D4E80000E876E1
:1005700048170000E40B54020000CA9A3B00000038
:10058000E1F505000080969800000040420F000051
:1005900000A08601000000102700000000E8030012
:1005A0000000006400000000000A000000000001DC
:1005B00000000000002C76D888DC674F0823DFC1DC
:1005C000DFAE59E1B1B796E5E3E453C63AE6519997
:1005D0007696E8E6C28426EB898C9B62ED407C6FC0
:1005E000FCEFBC9C9F40F2BAA56FA5F490055A2A77
:1005F000F75C936B6CF9676DC11BFCE0E40D47FE83
:10060000F520E6B500D0ED902E0300943577050077
:1006100080841E080000204E0A000000C80C3333FE
:1006200033330F986E12831141EF8D2114893BE60D
:100630005516CFFEE6DB18D1844B381BF77C1D9096
:100640001DA4BBE424203284725E228100C9F124FF
:10065000ECA1E53D2700BD2447425F530A54B55441
:10066000605511241FBECFEFD1E2DEBFCDBF00E049
:100670000CBF14E0A0E0B2E0EEE3F4EC00E00BBF4E
:1006800002C007900D92A839B107D9F72DE0A8E96B
:10069000B4E001C01D92AC31B207E1F716E0C2E64A
:1006A000D6E000E006C022970109FE010BBF0E94C0
:1006B000735AC635D10780E00807A9F70E9446564D
:1006C0000C941D629DCC0C94865D4F925F926F924C
:1006D0007F928F929F92AF92BF92CF92DF92EF92D2
:1006E000FF924B015C01CA01B901A50194010E946E
:1006F00053566B017C0180918809882321F0F7FA19
:10070000F094F7F8F09420E030E0A901C701B601B9
:100710000E94CA5818165CF420E030E040E450E42F
:10072000C701B6010E941A5787FF1AC00AC020E00D
:1007300030E040E450ECC701B6010E94CA581816D8
:100740007CF42091A2043091A3044091A404509120
:10075000A504C701B6010E9454562B013C0103C0F9
:10076000412C512C32014092A2045092A304609279
:10077000A4047092A50420917809309179094091E0
:100780007A0950917B09C701B6010E941A596B0181
:100790007C0120917C0930917D0940917E09509126
:1007A0007F09C301B2010E941A599B01AC01C70124
:1007B000B6010E9454566B017C01A5019401609121
:1007C0009E0470919F048091A0049091A1040E94C6
:1007D00053562091840930918509409186095091A2
:1007E00087090E941A599B01AC01C701B6010E94FA
:1007F000545620918009309181094091820950918D
:1008000083090E941A5920E030E040E251E40E943E
:10081000545680929E0490929F04A092A004B0929D
:10082000A1040E9489576536710514F064E670E0F2
:10083000CB0177FF02C080E090E0FF90EF90DF9067
:10084000CF90BF90AF909F908F907F906F905F9070
:100850004F90089562E086E30E94F55062E087E3DE
:100860000C94F55061E08EE10E94F55060E08EE15D
:100870000E942E511092A7040895EF92FF920F93B9
:10088000282F80915E09882379F08091A704811137
:100890000BC0E62EF12C30E040E050E000E06EE1CD
:1008A00083EC95E00E94E93E0F91FF90EF90089550
:1008B0008AE30E946351892B49F48BE30E946351C0
:1008C00021E0892B09F020E0822F089580E008952F
:1008D00060E070E088E00E94DD4F60E08AE30E9403
:1008E0002E5160E08BE30C942E511F93CF93DF9336
:1008F000E0915F09E23011F4EBDF2DC081E08093DD
:10090000A704CE2FD0E08AE1E89FF0011124E65D34
:10091000F64F84819581BC01660F771F680F791FA0
:10092000882777FD8095982F0E94BC57AB01BC01AA
:100930001AE51C9FC0011D9F900D11248253984FF2
:100940000E94983D80915F09189FC0011124825335
:10095000984F0E94BB3D0E94E54E68517C4F8F4FDF
:100960009F4F6093E3067093E4068093E5069093AF
:10097000E606DF91CF911F91089561E08AE30E941E
:10098000F55061E08BE30E94F55061E088E00E9441
:10099000F5509ECF8DDF811104C09ADF61E084E1C4
:1009A0006CCF08954F925F926F927F929F92AF9219
:1009B000BF92CF92DF92EF92FF920F931F93CF934C
:1009C000DF931F92CDB7DEB7982E2B01122F4983EC
:1009D0007FDF809167094981882321F081E04111FF
:1009E00080E0482F61E0411102C08AE301C08BE33F
:1009F0000E942E51692D70E080E090E0662457FC43
:100A00006094762C112321F11F921F921F922FEFD9
:100A10002F93A12CB12C650114E6E12EF12C00E0FE
:100A200010E020E030E0A9010E94FB5588E00E9420
:100A3000DD4F0E94E54E640D751D861D971D609368
:100A4000E7067093E8068093E9069093EA0625C0CE
:100A50001F921F921F922FEF2F93A12CB12C650193
:100A600014E6E12EF12C00E010E020E030E0A901D6
:100A70000E94FB5588E00E94DD4F9092A6040E94E0
:100A8000E54E640D751D861D971D6093EB067093F2
:100A9000EC068093ED069093EE060F900F900F906A
:100AA0000F900F90DF91CF911F910F91FF90EF90DA
:100AB000DF90CF90BF90AF909F907F906F905F90AE
:100AC0004F9008951F93CF93DF9300D000D0CDB700
:100AD000DEB76EEA72E00E94F95A10E0009791F0DA
:100AE0000E94AE5AFE013196E10FF11DE10FF11D9A
:100AF000918380831F5F6EEA72E080E090E00E9445
:100B0000F95AECCF123078F06D817E8120E0498176
:100B10008B8126960FB6F894DEBF0FBECDBFDF9156
:100B2000CF911F913FCF26960FB6F894DEBF0FBE30
:100B3000CDBFDF91CF911F9108959AE5899FF00174
:100B40001124E653F84F20918D0930918E09220F20
:100B5000331F220F331F82819381820F931F0895C9
:100B6000CF92DF92EF92FF926B017C01842FE5DF41
:100B7000B701A601FF90EF90DF90CF900C94013762
:100B8000CF93DF9300D01F92CDB7DEB7D6DFBE0183
:100B90006F5F7F4F0E94183769817A818B819C81BA
:100BA0000F900F900F900F90DF91CF9108950F93BA
:100BB0001F93CF93DF93CDB7DEB760970FB6F8944E
:100BC000DEBF0FBECDBF8C014FE050E0BE016F5FB6
:100BD0007F4F84E893E00E942337BE016F5F7F4F11
:100BE000C8010E94FC5A60960FB6F894DEBF0FBE93
:100BF000CDBFDF91CF911F910F9108950F931F9358
:100C0000CF93DF930AE219E0C4EFD1E0CE015BDDC0
:100C1000F80161918F0190E0262F332727FD309551
:100C20008217930719F0CE010E948E5D2196CC3871
:100C3000F2E0DF0759F7DF91CF911F910F910895EF
:100C40008F929F92AF92BF92CF92DF92EF92FF92DC
:100C500080E096DF4B015C0181E092DF6B017C015B
:100C600080918D0990918E0901968431910514F03F
:100C700080E090E090938E0980938D09BFDF80E043
:100C80005CDFB501A4010E94013781E056DFB701A6
:100C9000A601FF90EF90DF90CF90BF90AF909F9014
:100CA0008F900C9401370F931F93CF93DF938AE8B3
:100CB00092E009DD90E02091C009332727FD3095AF
:100CC0008217930739F589E892E0FDDC90E02091E6
:100CD000BF09332727FD309582179307D9F488E899
:100CE00092E0F1DC90E02091BE09332727FD30959A
:100CF0008217930779F40AE219E0C4EFD1E0CE013C
:100D0000E2DCF80181938F012196CC38F2E0DF0715
:100D1000B1F705C0DF91CF911F910F916FCFDF9198
:100D2000CF911F910F9108958F929F92AF92BF9292
:100D3000EF92FF920F931F93CF93DF930E94E54EA4
:100D400068537F4F8F4F9F4F6093DF067093E0068D
:100D50008093E1069093E20685E40E94B84F8C01EF
:100D600080913107909132076BEF7FEF0E94FD5920
:100D7000600F711F70933A076093390789E30E94EF
:100D8000B84F909334078093330788E30E94B84F9D
:100D9000909336078093350784E40E94B84FEC01A6
:100DA00090933807809337078091390790913A07DD
:100DB000BC01882777FD8095982F80903B07909005
:100DC0003C07A0903D07B0903E07860E971EA81ED8
:100DD000B91E80923B0790923C07A0923D07B092CB
:100DE0003E07E0903307F09034070E94BC574B0158
:100DF0005C01B701882777FD8095982F0E94BC572A
:100E00009B01AC01C501B4010E941A599B01AC01C0
:100E100060913F0770914007809141079091420790
:100E20000E94545660933F07709340078093410798
:100E30009093420720914D07E22FF0E0DF01AA0FC7
:100E4000BB1FAD5BB84F0D931C93EE0FFF1FEF5C04
:100E5000F84FF68EE58ED2ABC1AB809135079091FD
:100E6000360790A787A381E0820F853018F480931E
:100E70004D0702C010924D07DF91CF911F910F9146
:100E8000FF90EF90BF90AF909F908F900895EF925A
:100E9000FF920F931F93CF93DF93C3E085E40E94EB
:100EA000B84F080F191FC150C9F7CBEAD6E0FCE0D4
:100EB000EF2EF2E0FF2E6991F70181917F010E94F0
:100EC0002E51F6E0CF3ADF07B1F7E3E0FE2EC0E0A7
:100ED000D0E085E40E94B84FC80FD91FFA94C9F733
:100EE000C01BD10BC937D1057CF061E08EE1C5DCB8
:100EF00064E670E080E090E0DF91CF911F910F9168
:100F0000FF90EF900C94144FDF91CF911F910F91B0
:100F1000FF90EF9008958F3F11F48091AF068E3FC0
:100F200011F48091B00690E00895AF92BF92CF92F5
:100F3000DF92EF92FF920F931F93CF93C82F862FCC
:100F4000EADFBC01882777FD8095982F1F921F92BA
:100F50001F922FEF2F93A12CB12C650114E6E12EE7
:100F6000F12C00E010E020E030E0A9010E94FB55E8
:100F70000F900F900F900F908C2FCF911F910F918A
:100F8000FF90EF90DF90CF90BF90AF900C94DD4F2B
:100F9000E1E8F0E0208194E0981B287F922B908379
:100FA000089594E0981B943021F0933019F494E064
:100FB00001C096E08091B100887F892B8093B100B9
:100FC0000895E1EAF0E0208194E0981B287F922BBD
:100FD00090830895E1E2F1E0208194E0981B287F5E
:100FE000922B9083089580917409DBDF80917509BD
:100FF000CFDF80917609E5DF80917709EBCF1F93F2
:10100000CF93DF93CDB7DEB72C970FB6F894DEBF42
:101010000FBECDBF6EEA72E00E94F95A10E0009751
:10102000B9F00E94AB5AE1E0F0E0EC0FFD1F24E0C4
:10103000129FE00DF11D11246083718382839383DD
:101040001F5F6EEA72E080E090E00E94F95AE7CFFD
:10105000123008F440C020E030E04AE754E46981EF
:101060007A818B819C810E942157609368097093DB
:10107000690980936A0990936B0920E030E04AE7A0
:1010800054E46D817E818F8198850E942157609301
:101090006C0970936D0980936E0990936F0920E03D
:1010A00030E04AE754E469857A858B859C850E9407
:1010B000215760937009709371098093720990931E
:1010C00073092C960FB6F894DEBF0FBECDBFDF912B
:1010D000CF911F9193CD2C960FB6F894DEBF0FBE23
:1010E000CDBFDF91CF911F910895EF92FF920F93A3
:1010F0001F93CF93DF93CDB7DEB728970FB6F89441
:10110000DEBF0FBECDBF7C01609168097091690997
:1011100080916A0990916B098E010F5F1F4F23E048
:1011200045E00E948B5AB801C7010E94FC5A6EEA42
:1011300072E0C7010E94FC5A60916C0970916D09C0
:1011400080916E0990916F0923E045E00E948B5ACF
:10115000B801C7010E94FC5A6EEA72E0C7010E9402
:10116000FC5A609170097091710980917209909197
:10117000730923E045E00E948B5AB801C7010E9421
:10118000FC5A28960FB6F894DEBF0FBECDBFDF9194
:10119000CF911F910F91FF90EF9008951F93CF93E0
:1011A000DF93CDB7DEB76A970FB6F894DEBF0FBEF8
:1011B000CDBF6EEA72E00E94F95A10E0009791F0FC
:1011C0000E94AE5AFE013196E10FF11DE10FF11DB3
:1011D000918380831F5F6EEA72E080E090E00E945E
:1011E000F95AECCF1C3008F480C0898180936109E2
:1011F0008B819C8190936309809362098D819E818C
:1012000090936509809364098F818093660969854D
:101210007A85882777FD8095982F0E94BC5720E01B
:1012200030E04AE754E40E942157609378097093B4
:10123000790980937A0990937B096B857C8588274F
:1012400077FD8095982F0E94BC5720E030E44CE158
:1012500056E40E94215760937C0970937D09809326
:101260007E0990937F096D857E85882777FD80951F
:10127000982F0E94BC5720E030E44CE156E40E94D5
:101280002157609384097093850980938609909310
:1012900087096F857889882777FD8095982F0E9428
:1012A000BC57609380097093810980938209909361
:1012B00083098989809388098B899C8990938A09FD
:1012C000809389098D89809360098F8980938C0927
:1012D000898D80938B096A960FB6F894DEBF0FBE96
:1012E000CDBFDF91CF911F9189CC6A960FB6F8944C
:1012F000DEBF0FBECDBFDF91CF911F910895AF929A
:10130000BF92CF92DF92EF92FF920F931F93CF93F2
:10131000DF93CDB7DEB728970FB6F894DEBF0FBEC8
:10132000CDBF6C01809161091F928F93BAE9AB2EFA
:10133000B2E0BB2EBF92AF92CE0101967C01FF922C
:101340008F930E946A5BB701C6010E94FC5A6EEA45
:1013500072E0C6010E94FC5AE2E6F9E081818F93B7
:1013600080818F93BF92AF92FF92EF920E946A5B4F
:10137000B701C6010E94FC5A6EEA72E0C6010E94E3
:10138000FC5AE4E6F9E081818F9380818F93BF92CC
:10139000AF92FF92EF920E946A5BB701C6010E9472
:1013A000FC5A6EEA72E0C6010E94FC5A80916609FE
:1013B0001F928F93BF92AF92FF92EF920E946A5B4F
:1013C000B701C6010E94FC5A6EEA72E0C6010E9493
:1013D000FC5A609178097091790980917A0990910D
:1013E0007B09870123E045E00E948B5AB701C601C3
:1013F0000E94FC5A6EEA72E0C6010E94FC5A60919B
:101400007C0970917D0980917E0990917F0924E08B
:1014100046E00E948B5AB701C6010E94FC5A6EEA50
:1014200072E0C6010E94FC5A60918409709185099E
:10143000809186099091870924E046E00E948B5AAA
:10144000B701C6010E94FC5A6EEA72E0C6010E9412
:10145000FC5A609180097091810980918209909174
:10146000830920E045E00E948B5AB701C6010E9423
:10147000FC5A6EEA72E0C6010E94FC5A809188090B
:101480001F928F93BF92AF92FF92EF920E946A5B7E
:10149000B701C6010E94FC5A6EEA72E0C6010E94C2
:1014A000FC5AE9E8F9E081818F9380818F93BF92A4
:1014B000AF92FF92EF920E946A5B0FB6F894DEBF84
:1014C0000FBECDBFB701C6010E94FC5A6EEA72E0A2
:1014D000C6010E94FC5A809160091F928F93BF92AF
:1014E000AF92FF92EF920E946A5BB701C6010E9421
:1014F000FC5A6EEA72E0C6010E94FC5A80918C0987
:101500001F928F93BF92AF92FF92EF920E946A5BFD
:10151000B701C6010E94FC5A6EEA72E0C6010E9441
:10152000FC5A80918B091F928F93BF92AF92FF92CA
:10153000EF920E946A5BB701C6010E94FC5A0FB687
:10154000F894DEBF0FBECDBF28960FB6F894DEBF6D
:101550000FBECDBFDF91CF911F910F91FF90EF9004
:10156000DF90CF90BF90AF900895EF92FF920F93CE
:101570001F93CF93DF9300D01F92CDB7DEB77C01CE
:1015800019821A821B821C82FB0180818E010F5FEF
:101590001F4F823399F05CF4813329F580917409EF
:1015A0001F928F938AE992E09F938F9312C08333A7
:1015B00041F08433C1F48091770905C080917509A9
:1015C00002C0809176091F928F932AE932E03F93FF
:1015D0002F931F930F930E946A5B0F900F900F90B1
:1015E0000F900F900F90B801C7010E94FC5A0F9006
:1015F0000F900F900F90DF91CF911F910F91FF905F
:10160000EF900895DF92EF92FF920F931F93CF9385
:10161000DF9380913405882309F454C080914205FA
:10162000882309F44FC00E94E54E00919A0410915E
:101630009B0420919C0430919D04601B710B820BD4
:10164000930B61367A4E8105910520F40E94954EE8
:101650000297C1F184E395E00E94E5487C0184E3B0
:1016600095E00E94F548082F84E395E00E94144914
:10167000D82E82E495E00E944649D82F82E495E076
:101680000E943049C82F82E495E00E94224910E070
:101690002D2D30E04D2F50E06C2F70E0E091BA0915
:1016A000F091BB09DF01A80FB11DCD010E94734E5F
:1016B0000E94E54E60939A0470939B0480939C046F
:1016C00090939D0480E0DF91CF911F910F91FF9047
:1016D000EF90DF900895CF93C82F8091BD098823A4
:1016E00079F08091B709813059F0E091E00BF091E9
:1016F000E10B0190F081E02D6C2F80EE9BE01995BD
:101700006C2F82E195E00E944F4B882311F0CF911E
:1017100079CFCF9108958F929F92AF92BF92CF923F
:10172000DF92EF92FF920F931F93CF93DF93CDB78A
:10173000DEB760970FB6F894DEBF0FBECDBF4C0189
:101740008091AF059091B005A091B105B091B2051F
:10175000C297A105B10518F463E372E053C080910C
:101760003405882309F44CC084E395E00E94E548E1
:101770009F938F934AE9E42E42E0F42EFF92EF927A
:101780008E010F5F1F4F1F930F930E946A5BB8017A
:10179000C4010E94FC5A6EEA72E0C4010E94FC5A25
:1017A00084E395E00E94F5481F928F93FF92EF9299
:1017B0001F930F930E946A5BB801C4010E94FC5AF8
:1017C0006EEA72E0C4010E94FC5A84E395E00E9434
:1017D00014491F928F93FF92EF921F930F930E94D1
:1017E0006A5BB801C4010E94FC5A6EEA72E0C4014F
:1017F0000E94FC5A0FB6F894DEBF0FBECDBF05C0E5
:101800006EE372E0C4010E94FC5A80914205882375
:1018100009F491C082E495E00E9422491F928F93BF
:101820003AE9E32E32E0F32EFF92EF928E010F5F42
:101830001F4F1F930F930E946A5BB801C4010E945F
:10184000FC5A6EEA72E0C4010E94FC5A82E495E000
:101850000E9430491F928F93FF92EF921F930F9334
:101860000E946A5BB801C4010E94FC5A6EEA72E0F1
:10187000C4010E94FC5A82E495E00E9446491F92EE
:101880008F93FF92EF921F930F930E946A5BB801B0
:10189000C4010E94FC5A6EEA72E0C4010E94FC5A24
:1018A00082E495E00E9465491F928F93FF92EF9228
:1018B0001F930F930E946A5BB801C4010E94FC5AF7
:1018C0006EEA72E0C4010E94FC5A0FB6F894DEBFC3
:1018D0000FBECDBF80914205882379F00E94E54E6E
:1018E000C0904C05D0904D05E0904E05F0904F050E
:1018F0006C197D098E099F0903C06FEF7FEFCB0143
:101900009F938F937F936F938AE992E09F938F9336
:101910001F930F930E946A5BB801C4010E94FC5A96
:101920006EEA72E0C4010E94FC5A0FB6F894DEBF62
:101930000FBECDBF05C06AE372E0C4010E94FC5A2D
:1019400080911205882309F458C082E195E00E9435
:1019500048489E012F5F3F4F7901890124E046E00E
:101960000E948B5AB701C4010E94FC5A6EEA72E0D1
:10197000C4010E94FC5A82E195E00E94744824E070
:1019800046E00E948B5AB701C4010E94FC5A6EEADD
:1019900072E0C4010E94FC5A80911205882379F0FC
:1019A0000E94E54E009130051091310520913205DD
:1019B00030913305601B710B820B930B03C06FEFEB
:1019C0007FEFCB019F938F937F936F938AE992E090
:1019D0009F938F93FF92EF920E946A5BB701C401BD
:1019E0000E94FC5A6EEA72E0C4010E94FC5A0FB6D3
:1019F000F894DEBF0FBECDBF05C06EE372E0C40138
:101A00000E94FC5A80916C05882301F110926D05AB
:101A100060917205709173058091740590917505C0
:101A20000E94BC5720E030E048EC52E40E9421576D
:101A30008E010F5F1F4F20E041E00E948B5AB801DA
:101A4000C4010E94FC5A6EEA72E002C062E472E0D5
:101A5000C4010E94FC5A80917A05882341F11092BA
:101A60007B05809183058F93809182058F93809170
:101A700081058F93809180058F938AE992E09F93EF
:101A80008F938E010F5F1F4F1F930F930E946A5B0E
:101A9000B801C4010E94FC5A6EEA72E0C4010E94BF
:101AA000FC5A0FB6F894DEBF0FBECDBF05C062E48E
:101AB00072E0C4010E94FC5A80918805882341F19C
:101AC00010928905809191058F93809190058F9355
:101AD00080918F058F9380918E058F938AE992E094
:101AE0009F938F938E010F5F1F4F1F930F930E9441
:101AF0006A5BB801C4010E94FC5A6EEA72E0C4013C
:101B00000E94FC5A0FB6F894DEBF0FBECDBF05C0D1
:101B100062E472E0C4010E94FC5A8091120588239D
:101B200009F446C082E195E00E9474489B01AC0133
:101B300082E195E02D873E874F87588B0E94484869
:101B400016E2A12E13EDB12E14E9C12E11E4D12E0F
:101B50001CEEE12E1FEEF12E08E412E42D853E85E9
:101B60004F8558890E94414720E030E04AE754E41D
:101B70000E9421578E010F5F1F4F21E043E00E941A
:101B80008B5AB801C4010E94FC5A60960FB6F894B3
:101B9000DEBF0FBECDBFDF91CF911F910F91FF90A0
:101BA000EF90DF90CF90BF90AF909F908F9008956F
:101BB00065E472E0C40160960FB6F894DEBF0FBE14
:101BC000CDBFDF91CF911F910F91FF90EF90DF90EC
:101BD000CF90BF90AF909F908F900C94FC5ACF9273
:101BE000DF92EF92FF920F931F93CF93DF9300D07A
:101BF0001F921F92CDB7DEB76C010E94714E9F936A
:101C00008F935AE9E52E52E0F52EFF92EF928E0166
:101C10000F5F1F4F1F930F930E946A5BB801C601AD
:101C20000E94FC5A6EEA72E0C6010E94FC5A0E94B1
:101C30006B4E9F938F93FF92EF921F930F930E948F
:101C40006A5BB801C6010E94FC5A6EEA72E0C601E6
:101C50000E94FC5A0E94654E9F938F93FF92EF92D1
:101C60001F930F930E946A5BB801C6010E94FC5A41
:101C70006EEA72E0C6010E94FC5A0E94534E9F9386
:101C80008F93FF92EF921F930F930E946A5BB801AC
:101C9000C6010E94FC5A6EEA72E0C6010E94FC5A1C
:101CA0000E94594E9F938F93FF92EF921F930F9331
:101CB0000E946A5BB801C6010E94FC5A6EEA72E09B
:101CC000C6010E94FC5A0E945F4E9F938F93FF9221
:101CD000EF921F930F930E946A5B0FB6F894DEBFDA
:101CE0000FBECDBFB801C6010E94FC5A0F900F90E5
:101CF0000F900F900F90DF91CF911F910F91FF9058
:101D0000EF90DF90CF900895EF92FF920F931F9383
:101D1000CF93DF93CDB7DEB72C970FB6F894DEBF25
:101D20000FBECDBF6EEA72E00E94F95A10E0009734
:101D300091F00E94AE5AFE013196E10FF11DE10FC4
:101D4000F11D918380831F5F6EEA72E080E090E076
:101D50000E94F95AECCF163070F0E980FA800B81BE
:101D60001C812D813E814B855C8569857A858F81BB
:101D700098850E94734E2C960FB6F894DEBF0FBE66
:101D8000CDBFDF91CF911F910F91FF90EF900895FC
:101D9000CF92DF92EF92FF920F931F93CF93DF9337
:101DA00000D000D0CDB7DEB76C018091B7091F928B
:101DB0008F936AE9E62E62E0F62EFF92EF928E0193
:101DC0000F5F1F4F1F930F930E946A5BB801C601FC
:101DD0000E94FC5A6EEA72E0C6010E94FC5AE8EBCF
:101DE000F9E081818F9380818F93FF92EF921F930F
:101DF0000F930E946A5BB801C6010E94FC5A6EEA0A
:101E000072E0C6010E94FC5AEAEBF9E081818F93EF
:101E100080818F93FF92EF921F930F930E946A5BD2
:101E2000B801C6010E94FC5A6EEA72E0C6010E9427
:101E3000FC5A8091BC091F928F93FF92EF921F93DF
:101E40000F930E946A5BB801C6010E94FC5A6EEAB9
:101E500072E0C6010E94FC5A8091BD091F928F93C7
:101E6000FF92EF921F930F930E946A5BB801C60125
:101E70000E94FC5A0FB6F894DEBF0FBECDBF269667
:101E80000FB6F894DEBF0FBECDBFDF91CF911F918B
:101E90000F91FF90EF90DF90CF90089540E060E0C9
:101EA0008FE896E00E94594067E472E08FE896E080
:101EB0000E94E15541E060E08FE896E00E945940C1
:101EC0006CE572E08FE896E00E94E15542E060E048
:101ED0008FE896E00E94594061E772E08FE896E053
:101EE0000E94E15543E060E08FE896E00E9459408F
:101EF00067E472E08FE896E00C94E1558091B309B5
:101F0000882389F0E9E9F9E020E030E08081280FBA
:101F1000311D359689E0E73BF807C1F781E01216DD
:101F200013060CF080E00895E9E9F9E080E0908183
:101F3000911105C08F5F35968630C9F780E008950E
:101F4000AF92BF92CF92DF92EF92FF920F931F93C7
:101F5000CF93D4DF8093B30910921105109210052E
:101F6000E3DF90E090930F0580930E0525E0289F16
:101F7000F001299FF00D1124E756F64F808125E0EE
:101F8000829FC001112490930D0580930C0520E0E1
:101F900044E064E18FE896E00E9471408FE896E0AB
:101FA0000E9453408FE896E00E9423418091B3093C
:101FB000882319F06091B50901C060E070E080E00D
:101FC00090E01F921F921F92CFEFCF93A12CB12CC4
:101FD000650114E6E12EF12C00E010E020E030E095
:101FE000A9010E94FB558DE00E94DD4F6091B6096A
:101FF00070E080E090E01F921F921F92CF9320E04C
:1020000030E0A9010E94FB5584E00E94DD4F0E9450
:10201000E54E68517C4F8F4F9F4F6093F30670934E
:10202000F4068093F5069093F60668DF8093B30973
:102030008DB79EB708960FB6F8949EBF0FBE8DBFA2
:10204000CF911F910F91FF90EF90DF90CF90BF90B5
:10205000AF900895DF92EF92FF920F931F93CF936B
:10206000DF93CDB7DEB728970FB6F894DEBF0FBE6B
:10207000CDBF7C0160E070E08DE00E94DD4FF2E3B7
:10208000DF2E00E010E085E40E94B84F080F191F12
:10209000DA94C9F7C8016AE070E00E94FD596A50FD
:1020A000710970939409609393090E94FE058091D1
:1020B000930990919409909332078093310761E0DE
:1020C00084E10E943D043CDF809194098F938091CC
:1020D00093098F932AE932E03F932F938E010F5F8C
:1020E0001F4F1F930F930E946A5BB801C7010E94A4
:1020F000FC5A0F900F900F900F900F900F90289612
:102100000FB6F894DEBF0FBECDBFDF91CF911F9108
:102110000F91FF90EF90DF90089512DF8091B30947
:102120008111BCCE08956F927F928F929F92AF9251
:10213000BF92CF92DF92EF92FF920F931F93CF93B4
:10214000DF9300D000D0CDB7DEB77C01BAE28B2E92
:10215000B9E09B2E1AE9612E12E0712E8E010F5FFD
:102160001F4FA12CB12CF401EA0DFB1DE559FF4FC7
:1021700080811F928F93AAE9CA2EA2E0DA2E7F9265
:102180006F921F930F930E946A5BB801C7010E9470
:10219000FC5A6EEA72E0C7010E94FC5A8FEFA81A3F
:1021A000B80A0F900F900F900F900F900F9095E03E
:1021B000A916B104C1F685E0880E911C98E4891631
:1021C00099E0990671F68091B3091F928F93DF927F
:1021D000CF921F930F930E946A5BB801C7010E94C0
:1021E000FC5A6EEA72E0C7010E94FC5A8091B40961
:1021F0001F928F93DF92CF921F930F930E946A5B7F
:10220000B801C7010E94FC5A6EEA72E0C7010E9441
:10221000FC5A8091B5091F928F93DF92CF921F9342
:102220000F930E946A5BB801C7010E94FC5A6EEAD4
:1022300072E0C7010E94FC5A8091B6091F928F93E9
:10224000DF92CF921F930F930E946A5BB801C70180
:102250000E94FC5A0FB6F894DEBF0FBECDBF269683
:102260000FB6F894DEBF0FBECDBFDF91CF911F91A7
:102270000F91FF90EF90DF90CF90BF90AF909F9025
:102280008F907F906F9008951F93CF93DF93CDB77A
:10229000DEB7A2970FB6F894DEBF0FBECDBF6EEAD1
:1022A00072E00E94F95A10E0009789F00E94AE5A3D
:1022B000E1E0F0E0EC0FFD1FE10FF11D80831F5FF7
:1022C0006EEA72E080E090E00E94F95AEDCF12329F
:1022D00008F43FC09E012F5F3F4F4AE259E0BE0124
:1022E000615E7F4F80E090E0FA01E80FF91FE55949
:1022F000FF4FD901A80FB91FAC91A083019685307B
:10230000910591F72B5F3F4F4B5F5F4F26173707C4
:1023100049F781E09F8D911101C080E08093B3095E
:1023200081E098A1911101C080E08093B40989A156
:102330008093B5098AA18093B6090E94FE05A296F2
:102340000FB6F894DEBF0FBECDBFDF91CF911F91C6
:10235000F7CDA2960FB6F894DEBF0FBECDBFDF91CA
:10236000CF911F9108956AE58BEF96E00E946F442C
:1023700062E070E08BEF96E00E9476448BEF96E08F
:102380000E948A4591E0811101C090E0909330074E
:10239000992371F00E94E54E68517C4F8F4F9F4FFB
:1023A0006093EF067093F0068093F1069093F20627
:1023B00008950E94E54E68517C4F8F4F9F4F609368
:1023C000EF067093F0068093F1069093F2068EEC80
:1023D00097E00E942D3A672B682B692B39F588E22C
:1023E00098E00E942D3A672B682B692BF9F48BEF4C
:1023F00096E00E947A458823C9F08BEF96E00E9410
:10240000B444609328077093290780932A07909318
:102410002B078BEF96E00E94B04460932C077093DB
:102420002D0780932E0790932F07089508954F92BC
:102430005F926F927F928F929F92AF92BF92CF9254
:10244000DF92EF92FF920F931F93CF93DF93CDB75D
:10245000DEB728970FB6F894DEBF0FBECDBF7C0164
:102460009DE2892E99E0992E23E4622E29E0722EB6
:1024700036E8432E32E0532E8E010F5F1F4F4AE99C
:10248000A42E42E0B42EF40186818F9385818F9330
:1024900084818F9383818F935F924F921F930F93C9
:1024A0000E946A5BB801C7010E94FC5A6EEA72E0A2
:1024B000C7010E94FC5AF401339781818F93808178
:1024C0008F938AE9C82E82E0D82EBF92AF921F93D5
:1024D0000F930E946A5BB801C7010E94FC5A6EEA22
:1024E00072E0C7010E94FC5AF40180811F928F9311
:1024F000BF92AF921F930F930E946A5BB801C7010E
:102500000E94FC5A6EEA72E0C7010E94FC5AF40174
:10251000319780811F928F93BF92AF921F930F9339
:102520000E946A5BB801C7010E94FC5A6EEA72E021
:10253000C7010E94FC5AF40182818F9381818F939D
:10254000BF92AF921F930F930E946A5B0FB6F894ED
:10255000DEBF0FBECDBFB801C7010E94FC5A6EEAB4
:1025600072E0C7010E94FC5AF3013F9780811F92DD
:102570008F93BF92AF921F930F930E946A5BB80133
:10258000C7010E94FC5A6EEA72E0C7010E94FC5A21
:10259000F30180811F928F93BF92AF921F930F938D
:1025A0000E946A5BB801C7010E94FC5A6EEA72E0A1
:1025B000C7010E94FC5AF40181858F9380858F9317
:1025C000BF92AF921F930F930E946A5BB801C7013D
:1025D0000E94FC5A6EEA72E0C7010E94FC5A20E099
:1025E00030E048EC52E4F40162897389848995896A
:1025F0000E941A590E9489577F936F93BF92AF929E
:102600001F930F930E946A5BB801C7010E94FC5A96
:102610006EEA72E0C7010E94FC5AFAE18F0E911C2B
:102620008AE1680E711C0FB6F894DEBF0FBECDBFF5
:10263000F1E68F16F9E09F0609F025CF8091740925
:102640001F928F93DF92CF921F930F930E946A5B2A
:10265000B801C7010E94FC5A6EEA72E0C7010E94ED
:10266000FC5A809175091F928F93DF92CF921F932E
:102670000F930E946A5BB801C7010E94FC5A6EEA80
:1026800072E0C7010E94FC5A809176091F928F93D5
:10269000DF92CF921F930F930E946A5BB801C7012C
:1026A0000E94FC5A6EEA72E0C7010E94FC5A8091B7
:1026B00077091F928F93DF92CF921F930F930E94FF
:1026C0006A5BB801C7010E94FC5A6EEA72E0C7015A
:1026D0000E94FC5A80915E091F928F93DF92CF92E5
:1026E0001F930F930E946A5BB801C7010E94FC5AB6
:1026F0006EEA72E0C7010E94FC5A80915F091F9246
:102700008F93DF92CF921F930F930E946A5B0FB655
:10271000F894DEBF0FBECDBFB801C7010E94FC5ABE
:102720006EEA72E0C7010E94FC5A809160091F9214
:102730008F93DF92CF921F930F930E946A5BB80131
:10274000C7010E94FC5A6EEA72E0C7010E94FC5A5F
:10275000809167091F928F93DF92CF921F930F93FF
:102760000E946A5BB801C7010E94FC5A6EEA72E0DF
:10277000C7010E94FC5A80918F091F928F93DF92AC
:10278000CF921F930F930E946A5BB801C7010E940A
:10279000FC5A6EEA72E0C7010E94FC5A80919009CF
:1027A0001F928F93DF92CF921F930F930E946A5BC9
:1027B000B801C7010E94FC5A6EEA72E0C7010E948C
:1027C000FC5A809191091F928F93DF92CF921F93B1
:1027D0000F930E946A5BB801C7010E94FC5A6EEA1F
:1027E00072E0C7010E94FC5A809192091F928F9358
:1027F000DF92CF921F930F930E946A5B0FB6F894FB
:10280000DEBF0FBECDBFB801C7010E94FC5A28969B
:102810000FB6F894DEBF0FBECDBFDF91CF911F91F1
:102820000F91FF90EF90DF90CF90BF90AF909F906F
:102830008F907F906F905F904F900895CF93DF932C
:10284000EC01CB01FB0122812A8343815481658104
:1028500076814B835C836D837E8347815085618560
:1028600072854F83588769877A8743855485658544
:1028700076854B875C876D877E8747855089618920
:1028800072894F87588B698B7A8B43895489658904
:1028900076894B8B5C8B6D8B7E8B4789508D618DE0
:1028A000728D4F8B588F698F7A8F438D548D658DC4
:1028B000768D4B8F5C8F6D8F7E8F478D50A161A180
:1028C00072A14F8F58A369A37AA343A154A165A114
:1028D00076A14BA35CA36DA37EA347A150A561A5E0
:1028E00072A54FA358A769A77AA723A534A53CA72B
:1028F0002BA725A52DA726A52EA727A530A938AB40
:102900002FA721A932A93AAB29AB43A954A965A99C
:1029100076A94BAB5CAB6DAB7EAB47A950AD61AD5F
:1029200072AD4FAB58AF69AF7AAF43AD54AD65AD43
:1029300076AD4BAF5CAF6DAF7EAFFF9640815181FE
:1029400062817381FE01FF964083518362837383AA
:10295000FC01ED5BFF4F2081FE01ED5BFF4F20830B
:10296000FC01EC5BFF4F2081FE01EC5BFF4F2083FD
:10297000FC01EB5BFF4F2081FE01EB5BFF4F2083EF
:10298000DE01AA5BBF4FFC01EA5BFF4F28E001902C
:102990000D922A95E1F7DE01A25BBF4FFC01E25BDD
:1029A000FF4F88E001900D928A95E1F7CE01DF910B
:1029B000CF910895CF938FEF8093A6048AE1E9E148
:1029C000F2E0AAE2B9E001900D928A95E1F78AE17E
:1029D000E9E1F2E0A4E4B9E001900D928A95E1F713
:1029E000C1E0C0935E0910925F09109260091092D5
:1029F000610984E190E090936309809362092FEF6D
:102A00003FEF30936509209364098AE58093660956
:102A1000109267098DEC9CECACE4B0E480936809FB
:102A200090936909A0936A09B0936B0980936C092C
:102A300090936D09A0936E09B0936F09809370090C
:102A400090937109A0937209B093730983E0809306
:102A50007409C0937509C0937609C093770983E31D
:102A600093E3A3EBBEE38093780990937909A09355
:102A70007A09B0937B098FE692E1A3E8BAE38093E9
:102A80007C0990937D09A0937E09B0937F098AE029
:102A900097EDA3E2BCE38093840990938509A0930A
:102AA0008609B093870980E090E0A8ECB2E48093B7
:102AB000800990938109A0938209B0938309C09300
:102AC000880930938A092093890910928E091092FF
:102AD0008D0982E380938C098FE580938B0981EFC8
:102AE00099E090939409809393091092B3091092FE
:102AF000BC096AE872E08EEB99E00E94105B64ED1D
:102B000078E08EEC97E09ADEC093CB078EE280935C
:102B1000CA0784E690E09093CD078093CC076EE7D8
:102B200078E088E298E08ADEC09325088DE2809301
:102B300024088CE291E09093270880932608109255
:102B4000100710921107109212071092130710929B
:102B500014071092150710921607109217078FEF9F
:102B60009FEFDC018093180790931907A0931A0731
:102B7000B0931B0710921C0710921D0710921E079E
:102B800010921F071092200710922107109222071F
:102B9000109223078093240790932507A09326077C
:102BA000B093270710924D07109232071092310709
:102BB00010923F071092400710924107109242076F
:102BC00010923B0710923C0710923D0710923E076F
:102BD00010923A071092390710923807109237076F
:102BE000109236071092350710923407109233076F
:102BF000E3E4F7E014861386168A158A10A2178E6E
:102C00001192119287E0ED34F807A1F7CF91089562
:102C1000CF92DF92FF920F931F93CF93DF93F82E03
:102C20008AE5F89EE0011124C253D84F0F2D10E021
:102C30009AE1F99E60011124F601E65DF64F6F01FD
:102C400060817181882777FD8095982F0E94BC57FD
:102C5000AB01BC01CE010E94343DF6016481758157
:102C6000882777FD8095982F0E94BC57AB01BC0147
:102C7000CE010E94983D8F2D0E94C005AB01BC0182
:102C800077FF09C04F2D60E070E0CB010E94B005D6
:102C900040E050E0BA01CE010E94453A8AE1809FAF
:102CA0006001819FD00C1124C601865D964F6C0196
:102CB000FC01618DCE010E94263DF6016285CE01A8
:102CC000DF91CF911F910F91FF90DF90CF900C94E7
:102CD0002B3D2F923F924F925F926F927F928F92F5
:102CE0009F92AF92BF92CF92DF92EF92FF920F939B
:102CF0001F93CF93DF93CDB7DEB7C857D1090FB677
:102D0000F894DEBF0FBECDBF6EEA72E00E94F95AA2
:102D10008E010F5F1F4FF12CE02ED12E009709F18D
:102D2000BEE1FB1681F00E94CB5AD8016D937D93D2
:102D30008D939D938D01F3946EEA72E080E090E0B4
:102D40000E94F95AEBCF0E2D1D2D5AE2E52E59E0C7
:102D5000F52EC12CD12CA12CB12C312C2224239462
:102D60001DC0ECE1EF1578F3C858DF4F0FB6F894AB
:102D7000DEBF0FBECDBFDF91CF911F910F91FF90AE
:102D8000EF90DF90CF90BF90AF909F908F907F900B
:102D90006F905F904F903F902F900895D8014D9085
:102DA0005D906D907C90F7014682578260867186B7
:102DB000C6018253984F4C010E943F3A461657066F
:102DC00068067906A4F4D70116964D915D916D9130
:102DD0007C911997C4010E94453AF601E653F84FD9
:102DE0002182C4010E943F3A432D0E94B005F801A0
:102DF00084819581D7018D939C93F501E65DF64F13
:102E0000D80118968C91189783831C968C911C97E7
:102E1000828350968D919C915197D70115969C93E2
:102E20008E931497D80154968C9154978287589614
:102E30008C915897818F5C968D919C915D97F7014D
:102E40009487838790966D917D918D919C919397B6
:102E50000E94BC5720E030E048EC52E40E94215729
:102E6000D70155966D937D938D939C935897832DA1
:102E7000CFDE33940C5D1F4FBAE1AB0EB11CEAE11B
:102E8000EE0EF11CFAE5CF0ED11C22E0321286CFF5
:102E90002A968FAD2A97809374092E968FAD2E9720
:102EA0008093750962968FAD6297809376096696D6
:102EB0008FAD6697809377096A968FAD6A978093F6
:102EC0005E096E968FAD6E9780935F09A2968FAD67
:102ED000A29780936009A6968FADA6978093670905
:102EE000AA968FADAA9780938F09AE968FADAE97B5
:102EF00080939009E2968FADE29780939109E696D0
:102F00008FADE697809392090E94FE05C858DF4F67
:102F10000FB6F894DEBF0FBECDBFDF91CF911F91EA
:102F20000F91FF90EF90DF90CF90BF90AF909F9068
:102F30008F907F906F905F904F903F902F900C9468
:102F4000F3071F93CF93DF9380E062DE11E01093CD
:102F5000CB0780912D092FEF829FC0011124C4E679
:102F6000D0E0BE010E94FD598091CA070E94DD4F4A
:102F700081E04EDE10932508809147092FEF829F54
:102F8000C0011124BE010E94FD5980912408DF91E7
:102F9000CF911F910C94DD4FAF92BF92CF92DF92F1
:102FA000EF92FF920F931F93CF93DF936B017C01FE
:102FB000A42EB12C8AE5489F80011124E801C25358
:102FC000D84FCE010E943F3AC616D706E806F9064A
:102FD000B9F1F7FC11C08AE18A9DF0018B9DF00DDB
:102FE0001124E65DF64F86819781A085B1858C1509
:102FF0009D05AE05BF0574F462E084E6DF91CF91D4
:103000001F910F91FF90EF90DF90CF90BF90AF9006
:103010000C943D0464817581882777FD8095982FF5
:103020000E94BC57AB01BC01CE010E94983DB70184
:10303000A601CE010E94C93BF801E653F84F118268
:10304000DF91CF911F910F91FF90EF90DF90CF9084
:10305000BF90AF900895CF92DF92EF92FF920F93BF
:103060001F93CF93DF936B017C01C0915F09C23046
:10307000B1F441E0611571058105910509F440E065
:1030800021E060E177E28091A604DF91CF911F916A
:103090000F91FF90EF90DF90CF900C94D204D0E08E
:1030A0001AE11C9FF0011D9FF00D1124E65DF64F03
:1030B0008481958165E070E00E94FD59882777FD45
:1030C0008095982F0E94BC57AB01BC010AE50C9F6C
:1030D000C0010D9F900D11248253984F0E94983D7E
:1030E00020915F0930E0129FD001139FB00D112491
:1030F000A65DB64F12968C914FEF849FC0011124AC
:1031000064E670E00E94FD59029FF001039FF00DFC
:103110001124E653F84F80810E94DD4F40915F09F2
:10312000C701B60139DFE0915F090E9FF00111245C
:10313000E653F84F1182DF91CF911F910F91FF90CD
:10314000EF90DF90CF90089580EC96E00E94853F4D
:10315000892BB1F080EC96E00E944F3F892B71F4EF
:10316000E0915F098AE1E89FF0011124E65DF64FE6
:1031700066817781808591856EDF02C00E9475042B
:1031800081EB96E00E94853F892B61F081EB96E010
:103190000E944F3F892B21F460E070E0CB015BCFB0
:1031A0000C94750408958EEC97E00E94623C88E2CE
:1031B00098E00C94623CAF92BF92CF92DF92EF9274
:1031C000FF920F931F93CF93DF93CDB7DEB7649732
:1031D0000FB6F894DEBF0FBECDBF7C01E4DF8EECEE
:1031E00097E00E942D3A162F072FD82EC92E8EEC6D
:1031F00097E00E943F3ACF92DF920F931F939F93E5
:103200008F937F936F938EE892E09F938F938E01BD
:103210000F5F1F4F1F930F930E946A5BB801C70196
:103220000E94FC5AC0DF88E298E00E942D3AD62E18
:10323000C72EB82EA92E88E298E00E943F3AAF929E
:10324000BF92CF92DF929F938F937F936F9386E984
:1032500092E09F938F931F930F930E946A5BB80134
:10326000C7010E94FC5A9FDF0FB6F894DEBF0FBE65
:10327000CDBF64960FB6F894DEBF0FBECDBFDF9111
:10328000CF911F910F91FF90EF90DF90CF90BF9063
:10329000AF9008958EEC97E00E942D3A672B682B33
:1032A000692B61F488E298E00E942D3A21E0672BB7
:1032B000682B692B09F420E0822F089581E008959E
:1032C000CF93DF931F92CDB7DEB7482F80911005C3
:1032D0009091110562E070E00E94FD59892B99F0F0
:1032E0004983D8DF498181110EC060E08FE896E004
:1032F0000E9459406CE572E08FE896E00F90DF91F4
:10330000CF910C94E1550F90DF91CF910895CF921A
:10331000DF92EF92FF920F931F93CF93DF9300D032
:1033200000D0CDB7DEB76C01E7E3F9E083818F937E
:1033300082818F9381818F9380818F936AE9E62EBA
:1033400062E0F62EFF92EF928E010F5F1F4F1F93E8
:103350000F930E946A5BB801C6010E94FC5A6EEA94
:1033600072E0C6010E94FC5A20E030E048EC52E4D2
:1033700060913B0970913C0980913D0990913E0913
:103380000E941A590E9489577F936F93FF92EF9280
:103390001F930F930E946A5BB801C6010E94FC5AFA
:1033A0006EEA72E0C6010E94FC5AE5E3F9E0818111
:1033B0008F9380818F93FF92EF921F930F930E94C0
:1033C0006A5BB801C6010E94FC5A6EEA72E0C6014F
:1033D0000E94FC5AE1E5F9E083818F9382818F930B
:1033E00081818F9380818F93FF92EF921F930F9330
:1033F0000E946A5BB801C6010E94FC5A6EEA72E044
:10340000C6010E94FC5A20E030E048EC52E4609192
:1034100055097091560980915709909158090E9459
:103420001A590E9489577F936F93FF92EF921F93CF
:103430000F930E946A5B0FB6F894DEBF0FBECDBF3C
:10344000B801C6010E94FC5A6EEA72E0C6010E94F1
:10345000FC5AEFE4F9E081818F9380818F93FF9292
:10346000EF921F930F930E946A5BB801C6010E94FE
:10347000FC5A0F900F900F900F900F900F90269680
:103480000FB6F894DEBF0FBECDBFDF91CF911F9175
:103490000F91FF90EF90DF90CF900895CF93ECE6DF
:1034A000F7E011861286138614861582168217821B
:1034B0001086118212821382148210823D9687E058
:1034C000E339F80771F760910A0284E997E00E94F6
:1034D0004636892B29F481E080936C07C1E001C056
:1034E000C0E060910B0284E997E00E944636892B88
:1034F00021F481E080937907C1E089EA97E00E9496
:10350000DB3340E061EA77E089EA97E00E945E32CF
:10351000882381F04AE061EA77E089EA97E00E9437
:10352000683360E089EA97E00E943A3482E0809351
:10353000860702C0CC2351F10E94E54E6C507E4FAD
:103540008F4F9F4F6093CF067093D0068093D10624
:103550009093D2060E94E54E64527A4F8F4F9F4F50
:103560006093D7067093D8068093D9069093DA06B5
:103570000E94E54E6053784F8F4F9F4F6093DB065C
:103580007093DC068093DD069093DE06CF9108955C
:103590000E94E54E68537F4F8F4F9F4F6093D30635
:1035A0007093D4068093D5069093D6068EEC97E060
:1035B0000E942D3A672B682B692B91F488E298E0E2
:1035C0000E942D3A672B682B692B51F48091860756
:1035D000823031F461EA77E089EA97E00C94A5340F
:1035E00008954F925F926F927F92AF92BF92CF9267
:1035F000DF92EF92FF920F931F93CF93DF9300D050
:103600001F92CDB7DEB710918B09812F90E0A0E01B
:10361000B0E089839A83AB83BC8360918C09462E8A
:10362000512C612C712CE09160099DE0E99FF00123
:103630001124E459F84FC580D680E780F084C30197
:10364000B2010E94BC579B01AC01C701B6010E94A8
:103650001A5787FF03C0B201C30117C0612F70E082
:1036600080E090E00E94BC579B01AC01C701B6010D
:103670000E94CA5818162CF469817A818B819C812A
:1036800004C0C701B6010E9489571F921F921F9262
:1036900024E62F93A12CB12C6501E980FA800B81DF
:1036A0001C81A30192010E94FB556093AF060F900D
:1036B0000F900F900F900F900F900F900F90DF9141
:1036C000CF911F910F91FF90EF90DF90CF90BF901F
:1036D000AF907F906F905F904F900895CF92DF9260
:1036E000EF92FF920F931F93CF93DF93C0916109E5
:1036F000D0E07DE0F72EFC9EF001FD9EF00D112440
:10370000E459F84F8081882309F457C00091890952
:1037100010918A096091620970916309882777FD89
:103720008095982F17FD10C00E94BC57F09EF001A5
:10373000F19EF00D1124E459F84F2181328143812B
:1037400054810E94545602C00E94BC576B017C01F8
:10375000809164099091650997FD1DC02DE0289F17
:103760008001299F100D11240459184F609166099A
:1037700070E080E090E00E94BC579B01AC01F80132
:1037800065817681878190850E94CA5818161CF43D
:103790001092B00612C08DE08C9FF0018D9FF00D4D
:1037A0001124E459F84F6181728183819481A701CA
:1037B00096010E9465038093B006DF91CF911F911F
:1037C0000F91FF90EF90DF90CF9008950F931F938C
:1037D000CF93DF9306DF82DFC7EAD6E000E112E095
:1037E0006991F80181918F010E949507F6E0CB3A2B
:1037F000DF07B1F7DF91CF911F910F910895EF92FD
:10380000FF920F931F93CF93DF9360E089E30E94B1
:10381000F55060E088E30E94F55060E085E40E9486
:10382000F55060E084E40E94F550CFE8D9E0EBEA7F
:10383000EE2EE6E0FE2E0CE012E08991F701819376
:103840007F0161E0F80181918F010E94F550F9E05C
:10385000C339DF0791F70E94470761E087E20E94C2
:10386000F55061E087E20E942E51C7EAD6E000E100
:1038700012E0199261E0F80181918F010E94F550E8
:10388000F6E0CB3ADF07A9F71092B0061092AF0628
:103890009DDF0E94F3070E94E54E68537F4F8F4FD4
:1038A0009F4F6093DF067093E0068093E10690934C
:1038B000E206809193099091940990933207809346
:1038C0003107DF91CF911F910F91FF90EF900895F5
:1038D0003F924F925F926F927F928F929F92AF92A0
:1038E000BF92CF92DF92EF92FF920F931F93CF93ED
:1038F000DF93382E082F10E081111DC00E94E54E85
:103900006B017C01209137093091380940913909C8
:1039100050913A09A8EEB3E00E94635AC60ED71E32
:10392000E81EF91EC092D706D092D806E092D906BA
:10393000F092DA0620C00E94E54E6B017C018AE11C
:10394000809FF001819FF00D1124E65DF64F2585E3
:10395000368547855089A8EEB3E00E94635AC60EAB
:10396000D71EE81EF91EC092DB06D092DC06E0925C
:10397000DD06F092DE068AE1809F6001819FD00C17
:1039800011249601265D364F690120E030E0A9013F
:10399000F60161897289838994890E941A57882364
:1039A00009F4ECC0F6018385948597FDE7C08AE5AC
:1039B000809FE001819FD00D1124C253D84FCE01CA
:1039C0000E942D3A672B682B692B09F0D7C08CE039
:1039D000809F7001819FF00C11249701205F384F68
:1039E0007901F90180849184A284B384FFEF8F165A
:1039F0009F06AF06BF06E9F4CE010E943F3AF701E9
:103A00006087718782879387F601838594852DE08F
:103A1000289FF001299FF00D1124E459F84F81816E
:103A20009281A381B481F70180839183A283B383C0
:103A3000A1C0F601838594852DE0289FF001299F80
:103A4000F00D1124E459F84F418052806380748056
:103A5000A3019201F70164817581868197810E949B
:103A600053566B017C0120E030E0A9010E94CA5846
:103A700018165CF420E030E040E05FE3C701B601D7
:103A80000E94CA5818165CF079C020E030E040E08F
:103A90005FEBC701B6010E941A5787FF6FC0C501CF
:103AA000B4010E94BC576B017C018CE0809F4001F7
:103AB000819F900C11249401205F384F4901F90136
:103AC0002081318142815381C301B2010E9453564A
:103AD0002AE1209F5001219FB00C11249501265D01
:103AE000364F5901F90121893289438954890E944D
:103AF0001A599B01AC01C701B6010E9454560E949D
:103B000089576B017C01F50164817581882777FDF8
:103B10008095982F0E94BC57AB01BC01CE010E943A
:103B2000983DF5018281FFEF8F9FC001112464E66B
:103B300070E00E94FD598AE5809FF001819FF00DA1
:103B40001124E653F84F80810E94DD4F432DC701B9
:103B5000B60122DAF501838594852DE0289FF001D6
:103B6000299FF00D1124E459F84F81819281A3819E
:103B7000B481F40184839583A683B783DF91CF91C9
:103B80001F910F91FF90EF90DF90CF90BF90AF907B
:103B90009F908F907F906F905F904F903F9008958F
:103BA00080E096CE81E094CECF92DF92EF92FF92AA
:103BB000CF93DF93C82FD0E09CE0899FF0011124C0
:103BC000E05FF84F108211821282138214821582F4
:103BD000168217824FEF5FEFBA01408751876287E5
:103BE0007387811121C00E94E54E6B017C018AE13F
:103BF0008C9FF0018D9FF00D1124E65DF64F258519
:103C0000368547855089A8EEB3E00E94635AC60EF8
:103C1000D71EE81EF91EC092D706D092D806E092B1
:103C2000D906F092DA0620C00E94E54E6B017C01B5
:103C30008AE18C9FF0018D9FF00D1124E65DF64F17
:103C40002585368547855089A8EEB3E00E94635AE2
:103C5000C60ED71EE81EF91EC092DB06D092DC0607
:103C6000E092DD06F092DE06DF91CF91FF90EF90BB
:103C7000DF90CF900895DF92EF92FF920F931F9302
:103C8000CF93DF93D82EC82FD0E02AE5829F800102
:103C90001124C8018253984F7C010E942D3A672B52
:103CA000682B692B81F50653184FF801818181112A
:103CB0002AC0C7010E943F3A4D2D0E94B00581E005
:103CC000F801818361E084E10E943D048AE18C9FD8
:103CD000F0018D9FF00D1124E65DF64F8381FFEF1B
:103CE0008F9FC001112464E670E00E94FD59F80125
:103CF00080810E94DD4F80919307882321F08D2DD4
:103D000053DF10929307DF91CF911F910F91FF9096
:103D1000EF90DF90089547DA80E0ADDF81E0ABDF20
:103D200013DA83EC95E00C947F3E1F93CF93DF93DF
:103D3000CDB7DEB72C970FB6F894DEBF0FBECDBF60
:103D40006EEA72E00E94F95A10E0009791F00E942A
:103D5000AE5AFE013196E10FF11DE10FF11D918385
:103D600080831F5F6EEA72E080E090E00E94F95A63
:103D7000ECCF153008F463C089819A81AA2797FD9A
:103D8000A095BA2F8093370990933809A0933909E9
:103D9000B0933A096B817C81882777FD8095982FB5
:103DA0000E94BC5720E030E048EC52E40E942157CA
:103DB00060933B0970933C0980933D0990933E09C1
:103DC0008D819E8190933609809335098F819885E6
:103DD000AA2797FDA095BA2F809351099093520975
:103DE000A0935309B093540969857A85882777FD94
:103DF0008095982F0E94BC5720E030E048EC52E4B8
:103E00000E94215760935509709356098093570972
:103E1000909358098B859C859093500980934F0906
:103E20000E94FE0580E0C0DE81E02C960FB6F8947B
:103E3000DEBF0FBECDBFDF91CF911F91B5CE2C96C7
:103E40000FB6F894DEBF0FBECDBFDF91CF911F91AB
:103E500008954F925F926F927F928F929F92AF924E
:103E6000BF92CF92DF92EF92FF926B017C01CA0169
:103E7000B9012AE037ED43E25CE30E941A590E943F
:103E8000DA584B015C0122E03BE24AE851E4C70109
:103E9000B6010E941A592B013C0123E333EB4DE696
:103EA00053E4C701B6010E9454569B01AC01C30103
:103EB000B2010E942157A50194010E9454566B0142
:103EC0007C0123E333EB4DE653E40E941A594B0186
:103ED0005C01A701960162E07BE28AE891E40E941E
:103EE00053569B01AC01C501B4010E942157FF90BC
:103EF000EF90DF90CF90BF90AF909F908F907F908A
:103F00006F905F904F9008950F931F93CF93DF931F
:103F10000E94E54E68517C4F8F4F9F4F6093CF06B4
:103F20007093D0068093D1069093D2068EEC97E0E2
:103F30000E942D3A672B682B692B09F060C088E23C
:103F400098E00E942D3A672B682B692B09F057C027
:103F5000CCE6D7E00AE012E019861A861B861C869A
:103F60001D821E821F82188619821A821B821C8261
:103F70008881813031F5F801608184E997E00E9401
:103F80004636892B51F56091980770919907809179
:103F90009A0790919B0769837A838B839C832091F6
:103FA00094073091950740919607509197072D837C
:103FB0003E834F8358874DDF69877A878B879C873D
:103FC0000CC0823051F461EA77E089EA97E00E9400
:103FD0008D3569837A838B839C832D960F5F1F4F6A
:103FE000F7E0C339DF0709F0B7CF809130078111BF
:103FF0000E94D911DF91CF911F910F91E7CBDF91F3
:10400000CF911F910F910895EF92FF920F931F93FD
:10401000CF93DF9300D000D0CDB7DEB77C01809185
:104020006C0781110BC08091790781110AC08091C2
:104030008607882361F122E030E005C020E030E00F
:1040400002C021E030E08DE0829FF001839FF00DFF
:104050001124E459F84F61817281838194818E012A
:104060000F5F1F4F21E043E00E948B5AB801C70148
:104070000E94FC5A26960FB6F894DEBF0FBECDBF45
:10408000DF91CF911F910F91FF90EF9008956DE90F
:1040900072E0C70126960FB6F894DEBF0FBECDBF03
:1040A000DF91CF911F910F91FF90EF900C94FC5AEC
:1040B000EF92FF920F931F93CF93DF9300D000D026
:1040C000CDB7DEB77C0180916C07813059F08091CB
:1040D0007907813051F080918607813061F522E0C7
:1040E00030E005C020E030E002C021E030E08DE0AB
:1040F000829FF001839FF00D1124E459F84F6581F0
:104100007681878190858E010F5F1F4F21E043E00C
:104110000E948B5AB801C7010E94FC5A26960FB61E
:10412000F894DEBF0FBECDBFDF91CF911F910F91ED
:10413000FF90EF9008956DE972E0C70126960FB6E3
:10414000F894DEBF0FBECDBFDF91CF911F910F91CD
:10415000FF90EF900C94FC5AEF92FF920F931F93F5
:10416000CF93DF9300D000D0CDB7DEB77C01809134
:104170006C07813059F080917907813051F080913E
:104180008607813061F522E030E005C020E030E0B4
:1041900002C021E030E08DE0829FF001839FF00DAE
:1041A0001124E459F84F61857285838594858E01C9
:1041B0000F5F1F4F21E043E00E948B5AB801C701F7
:1041C0000E94FC5A26960FB6F894DEBF0FBECDBFF4
:1041D000DF91CF911F910F91FF90EF9008956DE9BE
:1041E00072E0C70126960FB6F894DEBF0FBECDBFB2
:1041F000DF91CF911F910F91FF90EF900C94FC5A9B
:1042000027ED3EE24AE050E060E070E083EC95E0AC
:104210000C94E13ECF93DF93CDB7DEB72E970FB668
:10422000F894DEBF0FBECDBFFC0120812053BC013E
:104230006E5F7F4F48E050E0CE0101962E870E94CE
:10424000175BCE0101960E94CB5A6A877B878C87C9
:104250009D87362F472F582F692F2E8570E080E0DD
:1042600090E02E960FB6F894DEBF0FBECDBFDF9163
:10427000CF9108950F931F93CF93DF9300D01F9298
:104280001F92CDB7DEB78C01C5DFF8018081823384
:1042900069F02CF4813379F4309374090CC08333C2
:1042A00041F0843341F43093770905C030937509A8
:1042B00002C0309376090E94FE050F900F900F9078
:1042C0000F900F90DF91CF911F910F910C94F307F6
:1042D000CF93DF9300D01F921F92CDB7DEB79ADF46
:1042E000E22FF0E0E955F94F30830F900F900F90D7
:1042F0000F900F90DF91CF9169CACF92DF92EF922A
:10430000FF920F931F93CF93DF9300D000D0CDB7D0
:10431000DEB780DF3A834B835C836D83E22EF12C22
:104320003AE1239F80011124065D164FF801648154
:104330007581882777FD8095982F2E830E94BC5722
:10434000AB01BC013AE53E9D60013F9DD00C1124BC
:10435000C6018253984F0E94983DF8018281FFEF79
:104360008F9FC001112464E670E00E94FD59F601A0
:10437000E653F84F80810E94DD4F81E080939307E0
:104380006A817B818C819D812E81422F26960FB67A
:10439000F894DEBF0FBECDBFDF91CF911F910F917B
:1043A000FF90EF90DF90CF900C94CC17EF92FF929C
:1043B0000F931F93CF93DF9300D000D0CDB7DEB71C
:1043C00029DF3A834B835C836D838AE5289F7001E4
:1043D000112487010253184F4A815B816C817D81D2
:1043E000C8012E830E94453AF701E653F84F81E059
:1043F0008183C8010E943F3A2E81422F26960FB634
:10440000F894DEBF0FBECDBFDF91CF911F910F910A
:10441000FF90EF900C94B005CF93DF9300D01F92E4
:104420001F92CDB7DEB7F6DEE22FF0E0E955F94F87
:1044300034830F900F900F900F900F90DF91CF91DA
:104440000C944707CF92DF92EF92FF92CF93262FE3
:10445000FC01C0E060E070E0CB01C21761F0C190E8
:10446000D190EE24D7FCE094FE2C6C0D7D1D8E1DAA
:104470009F1DCF5FF2CF0E94BC576B017C016C2F58
:1044800070E080E090E00E94BA579B01AC01C70148
:10449000B6010E942157CF91FF90EF90DF90CF900F
:1044A0000895562F40E060E070E0451741F0FC01B0
:1044B00021913191CF01620F731F4F5FF6CF809131
:1044C000310790913207681B790B882777FD80951B
:1044D000982F0E94BC5720E030E040E251E40E9457
:1044E0001A5920E030E040E85AE30C941A59089534
:1044F0008F929F92AF92BF92CF92DF92EF92FF92F4
:104500000F931F93CF93DF93CDB7DEB764970FB6AA
:10451000F894DEBF0FBECDBF4C010E94D3188EECC5
:1045200097E00E942D3A162F072FF82EE92E8EECD9
:1045300097E00E943F3AEF92FF920F931F939F9351
:104540008F937F936F930EE812E01F930F939E015A
:104550002F5F3F4F5901BF922F930E946A5BB501B5
:10456000C4010E94FC5A0E94D31888E298E00E947D
:104570002D3AF62EE72ED82EC92E88E298E00E941A
:104580003F3ACF92DF92EF92FF929F938F937F9368
:104590006F931F930F93BF92AF920E946A5BB50116
:1045A000C4010E94FC5A0E94D31865E083E497E09E
:1045B00078DF850122E044E00E948B5AB501C401F6
:1045C0000E94FC5A6EEA72E0C4010E94FC5A0E94EA
:1045D000D3188EEC97E00E942D3A0FB6F894DEBF08
:1045E0000FBECDBF672B682B692B09F0B3C188E2E2
:1045F00098E00E942D3A672B682B692B09F0AAC11D
:10460000FCE6EF2EF7E0FF2EACEACA2EA2E0DA2E8F
:10461000F70180811F928F93DF92CF92BF92AF926A
:104620000E946A5BB501C4010E94FC5AF7016181D6
:10463000728183819481850121E043E00E948B5A3D
:10464000B501C4010E94FC5A6EEA72E0C4010E94E6
:10465000FC5AF701658176818781908521E043E0EE
:104660000E948B5AB501C4010E94FC5A6EEA72E0A6
:10467000C4010E94FC5AF701618572858385948587
:1046800021E043E00E948B5AB501C4010E94FC5A0C
:104690006EEA72E0C4010E94FC5AFDE0EF0EF11CCC
:1046A0000F900F900F900F900F900F9023E9E2164C
:1046B00027E0F20609F0ACCF8091AA060E948B0792
:1046C000D82EC92E8091A9060E948B07F82EE92EBC
:1046D0008091A8060E948B07182F092F8091A706AA
:1046E0000E948B07CF92DF92EF92FF920F931F935E
:1046F0009F938F9303EA12E01F930F93BF92AF92A1
:104700000E946A5BB501C4010E94FC5A8091AE060A
:104710001F928F938091AD061F928F938091AC066C
:104720001F928F938091AB061F928F931F930F93CD
:10473000BF92AF920E946A5BB501C4010E94FC5A0D
:10474000C0906809D0906909E0906A09F0906B09FF
:1047500065E08EE497E076DE20E030E040EA5BE35F
:104760000E941A599B01AC01C701B6010E941A5957
:10477000850121E043E00E948B5AB501C4010E94EB
:10478000FC5A6EEA72E0C4010E94FC5AC0906C09A7
:10479000D0906D09E0906E09F0906F0965E088E5B2
:1047A00097E050DE20E030E040EA5BE30E941A59D7
:1047B0009B01AC01C701B6010E941A5921E043E0F8
:1047C0000E948B5AB501C4010E94FC5A6EEA72E045
:1047D000C4010E94FC5AC0907009D0907109E09009
:1047E0007209F090730965E082E697E02BDE20E025
:1047F00030E040EA5BE30E941A599B01AC01C7011B
:10480000B6010E941A5921E043E00E948B5AB5017B
:10481000C4010E94FC5A6EEA72E0C4010E94FC5A74
:1048200060913B0770913C0780913D0790913E0756
:104830000E94BC5720E030E044EB58E40E9421572E
:1048400022E044E00E948B5AB501C4010E94FC5A48
:104850006EEA72E0C4010E94FC5A20E030E040E9B8
:104860005CE460913F07709140078091410790910F
:1048700042070E94215720916809309169094091AF
:104880006A0950916B090E941A5922E044E00E9483
:104890008B5AB501C4010E94FC5A6EEA72E0C40151
:1048A0000E94FC5A8AE30E9463510FB6F894DEBF5F
:1048B0000FBECDBF019749F08BE30E94635131E0F9
:1048C00020E0019721F030E002C031E020E02F939A
:1048D0003F938AE992E09F938F93BF92AF920E9499
:1048E0006A5BB501C4010E94FC5A0F900F900F90B3
:1048F0000F900F900F9080913007882359F16EEA46
:1049000072E0C4010E94FC5A60912C0770912D073F
:1049100080912E0790912F07850121E043E00E94AE
:104920008B5AB501C4010E94FC5A6EEA72E0C401C0
:104930000E94FC5A609128077091290780912A07EC
:1049400090912B0721E043E00E948B5AB501C401EE
:104950000E94FC5A64960FB6F894DEBF0FBECDBF1E
:10496000DF91CF911F910F91FF90EF90DF90CF904B
:10497000BF90AF909F908F900895CF92EF920F933A
:10498000CC24C394BEE3EB2E0CE32FE34DE368E0AD
:1049900084ED98E00E948D3C02E4E02E00E423E4E4
:1049A00041E468E08EE798E00E948D3C85E0E82EC7
:1049B00004E023E042E064E08EEC97E00E948D3C4E
:1049C00023E042E064E088E298E00E948D3C65E0EC
:1049D0008CEB97E00E947A316CEB77E089EA97E004
:1049E0000E9441328BEF96E00E945E442EE130E05F
:1049F00040E050E066E380EC96E00E94333F2EE119
:104A000030E040E050E067E381EB96E00E94333F06
:104A10009CE1C92E2BE1E22E0AE129E148E167E1A0
:104A20008FE896E00E94044183EC95E00E946C3E82
:104A300082E195E00F91EF90CF900C94BA45809170
:104A4000BC09882391F08091B7098111089583E40E
:104A50009BE00E948B51181619063CF483E49BE0FE
:104A60000E94A4510E946B0BF2CF08958091BC0963
:104A7000882391F08091B709813071F480EE9BE03A
:104A80000E948B51181619063CF480EE9BE00E94A0
:104A9000A4510E946B0BF2CF08958091BC0988232A
:104AA00091F08091B709823071F48DE79CE00E940B
:104AB0008B51181619063CF48DE79CE00E94A45116
:104AC0000E946B0BF2CF0895CF93DF938091B809CA
:104AD0009091B9098130910529F0029731F0C0EC2D
:104AE000D2E105C0C0E8D5E202C0C0E0DBE48091BD
:104AF000B709811115C026E0AE01662757FD609504
:104B0000762F83E49BE00E94975240ED57E060E0EF
:104B100070E083E49BE00E94F55583E49BE02DC0A8
:104B20008130A9F426E0AE01662757FD6095762F07
:104B300080EE9BE00E94975240ED57E060E070E00D
:104B400080EE9BE00E94F55580EE9BE016C082301F
:104B5000B1F426E0AE01662757FD6095762F8DE70C
:104B60009CE00E94975240ED57E060E070E08DE7D6
:104B70009CE00E94F5558DE79CE00E9412528091C6
:104B8000BD098823E1F08091B7098130C1F0AE0101
:104B9000662757FD6095762F26E080EE9BE00E9409
:104BA000975240ED57E060E070E080EE9BE00E949D
:104BB000F55580EE9BE0DF91CF910C941252DF917E
:104BC000CF9108958091BC0981117ECF08951F93E4
:104BD000CF93DF9300D01F921F92CDB7DEB76EEA5E
:104BE00072E00E94F95A10E0009789F00E94AE5AD4
:104BF000E1E0F0E0EC0FFD1FE10FF11D80831F5F8E
:104C00006EEA72E080E090E00E94F95AEDCF153034
:104C100040F189818093B7098A8190E09093B90926
:104C20008093B8098B8190E09093BB098093BA0977
:104C300081E09C81911101C080E08093BC0981E0FA
:104C40009D81911101C080E08093BD090E94FE0505
:104C50000F900F900F900F900F90DF91CF911F91B9
:104C600033CF0F900F900F900F900F90DF91CF9157
:104C70001F910895AF92BF92CF92DF92EF92FF9271
:104C80000F931F93CF93DF93CDB7DEB7CF5FD109DB
:104C90000FB6F894DEBF0FBECDBF6C017E0149E7B1
:104CA000E40EF11C88E7F701482F11924A95E9F7C5
:104CB0008E010F5F1F4FF80111928A95E9F7F601F7
:104CC00001900020E9F73197EC19FD09E33080F0FD
:104CD0005F01BB24F2E0AF1AB108A501B6016E5F17
:104CE0007F4FC7010E94175BF701EA0DFB1D108281
:104CF00041E050E0B601C8010E94175B6EEA72E025
:104D0000C8010E94FC5AF6014081552747FD509585
:104D1000652F752FFA01B397E635F10508F038C114
:104D2000EE58FF4F0C944E5A64EB72E0C8010E949B
:104D3000FC5A61E033C1C701E0DA33C1C7010E9408
:104D4000AE5A2AE5AC01249FC001259F900D112485
:104D50008253984F0E943F3A9F938F937F936F9314
:104D600086E892E09F938F937E0151EFE50EF11C50
:104D7000FF92EF920E946A5BB701C8010E94FC5A41
:104D80000FB6F894DEBF0FBECDBF0BC1C7010EDB5F
:104D900008C1C7010E94AE5A2AE5FC012E9FC0013E
:104DA0002F9F900D11248253984F0E942D3A672B0C
:104DB000682B692B19F060EB72E0C7C062EB72E000
:104DC000C4C08091600967C0C7010E94AE5A809339
:104DD00060092FC0C7010E94AE5A2AE5AC01249F8A
:104DE000C001259F900D11248253984F0E94BB3D16
:104DF000D8C080915E091F928F938AE992E09F93B9
:104E00008F937E0151EFE50EF11CFF92EF920E940D
:104E10006A5BB701C8010E94FC5A0F900F900F9077
:104E20000F900F900F90BDC0C7010E94AE5A8093A3
:104E30005E090E94FE05B5C0C801E6D8B2C0C8012F
:104E400037D9AFC0C80188D9ACC0C8010E94871942
:104E5000A8C0C7010E94951EA4C0C7010E94AE5AF7
:104E60008955994FFC0180810E948B079F938F93F6
:104E70008AE992E09F938F937E01F1EFEF0EF11C90
:104E8000C4CFC70125DAD5CFC7010E94AE5A8955D4
:104E9000994FFC0184811F92EACFC701BDDAC9CFC7
:104EA000B701C8010E94B50A7CC0C701E3D9C1CFD0
:104EB000C7010E94620575C08AE30E946351019791
:104EC00049F08BE30E94635131E020E0019721F02B
:104ED00030E002C031E020E02F933F938AE992E076
:104EE0009F938F937E0141EFE40EF11C8ECF0E94C1
:104EF000680457C0C801FCDA54C0C8010E94DB181E
:104F000050C0C8010E9417124CC0C7010E94691608
:104F100048C0C8010E94750844C0C7010E94FF072D
:104F200040C0C8010E947F093CC0C7010E94CE0852
:104F300038C0B70184E893E00E941B3732C0C80133
:104F40000E94D7052EC062EC72E0C8010E94FC5A94
:104F500028C0C8010E942A1024C0C8010E949310D2
:104F600020C0C7010E9444111CC0C8010E94EF0D5F
:104F700018C0C7010E94840E14C0C8010E94C80E48
:104F800010C0C70124DE0DC0C8010E948B0B09C0F0
:104F900068EC72E0C8010E94FC5A63E082E30E9460
:104FA0003D04B80186EA9AE00E94E555C150DF4F02
:104FB0000FB6F894DEBF0FBECDBFDF91CF911F912A
:104FC0000F91FF90EF90DF90CF90BF90AF9008953A
:104FD0001F93CF93DF93C8EAD4E014E686EA9AE001
:104FE0000E948B5118161906E4F486EA9AE00E9492
:104FF000A4518A3049F488EA94E03CDEFE01812F16
:1050000011928A95E9F7EACFFE0101900020E9F7B5
:105010003197E85AF440FF27E855FB4F808311820F
:10502000DDCFDF91CF911F91089526E040E052EC53
:1050300061E070E086EA9AE00E94975240ED57E006
:1050400060E070E086EA9AE00E94F55586EA9AE010
:105050000E94125284E6E8EAF4E0DF011D928A958C
:10506000E9F708950E94DA140E945306DEDF0E94D9
:1050700032040E944E1A0E94B3110E942A040E9418
:10508000A1170E94BD040E9420060E94FF1B9ADD0A
:105090000E948D1062E082E30E943D04B1D80E941C
:1050A000E54E6093BF057093C0058093C105909352
:1050B000C20508950F931F93CF93DF938C01462F62
:1050C00060E08FE896E00E945940E80114E10E94F8
:1050D000D31869918FE896E00E9429411150B9F7E1
:1050E000DF91CF911F910F910895DF92EF92FF9280
:1050F0000F931F93CF93DF93CDB7DEB765970FB6AE
:10510000F894DEBF0FBECDBFF82E8EEC97E00E9464
:105110003F3A162F072FE82ED92E88E298E00E94FA
:105120003F3A9F938F937F936F93DF92EF920F930A
:105130001F932FEC32E03F932F938E010F5F1F4F91
:105140001F930F930E946A5B6F2DC801B3DF0FB6E8
:10515000F894DEBF0FBECDBF65960FB6F894DEBFE4
:105160000FBECDBFDF91CF911F910F91FF90EF90B8
:10517000DF9008957F928F929F92AF92BF92CF92CD
:10518000DF92EF92FF920F931F93CF93DF93CDB7F0
:10519000DEB76C970FB6F894DEBF0FBECDBF782E8A
:1051A000862E912C2AE5629F60011124C60182534C
:1051B000984F6C010E943F3A5E01E6E1AE0EB11CD1
:1051C0000E94BC572AE1289D7001299DF00C1124F2
:1051D0009701265D364F7901F9012589368947897E
:1051E000508D0E941A5920E030E04AE754E40E94B2
:1051F0002157850123E046E00E948B5AF701138571
:105200000485C6010E943F3A0F931F93BF92AF924D
:105210009F938F937F936F93FFEF8F1A9F0A9F92B5
:105220008F9280EE92E09F938F938E010F5F1F4FBE
:105230001F930F930E946A5B672DC8013BDF0FB677
:10524000F894DEBF0FBECDBF6C960FB6F894DEBFEC
:105250000FBECDBFDF91CF911F910F91FF90EF90C7
:10526000DF90CF90BF90AF909F908F907F900895E8
:1052700060E080CF61E07ECFBF92CF92DF92EF926D
:10528000FF920F931F93CF93DF93CDB7DEB7659750
:105290000FB6F894DEBF0FBECDBFF82E809110057B
:1052A0009091110563E070E00E94FD59892BA9F1EE
:1052B0000E944A19811131C08091AA060E948B0771
:1052C000C82EB92E8091A9060E948B07E82ED92EF0
:1052D0008091A8060E948B07182F092F8091A7069E
:1052E0000E948B07BF92CF92DF92EF920F931F9392
:1052F0009F938F9321EF32E03F932F938E010F5FA7
:105300001F4F1F930F930E946A5B6F2DC801D2DE5F
:105310000FB6F894DEBF0FBECDBF65960FB6F894FA
:10532000DEBF0FBECDBFDF91CF911F910F91FF90D8
:10533000EF90DF90CF90BF9008954F925F926F9261
:105340007F929F92AF92BF92CF92DF92EF92FF92A5
:105350000F931F93CF93DF93CDB7DEB7A3970FB60D
:10536000F894DEBF0FBECDBF982E809110059091AE
:10537000110563E070E00E94FD59892B09F47BC0A0
:10538000409068095090690960906A0970906B09B3
:1053900065E08EE497E056D87E012BE1E20EF11C29
:1053A00020E030E040EA5BE30E941A599B01AC0127
:1053B000C301B2010E941A59870121E044E00E9412
:1053C0008B5A40906C0950906D0960906E097090F6
:1053D0006F0965E088E597E035D86E0126E1C20ED9
:1053E000D11C20E030E040EA5BE30E941A599B01A7
:1053F000AC01C301B2010E941A59860121E044E0C8
:105400000E948B5A40907009509071096090720907
:105410007090730965E082E697E014D85E0120E29F
:10542000A20EB11C20E030E040EA5BE30E941A5972
:105430009B01AC01C301B2010E941A59850121E010
:1054400043E00E948B5ABF92AF92DF92CF92FF92BD
:10545000EF9287E093E09F938F930F5111091F9371
:105460000F930E946A5B692DC80124DE0FB6F89481
:10547000DEBF0FBECDBFA3960FB6F894DEBF0FBE42
:10548000CDBFDF91CF911F910F91FF90EF90DF90F3
:10549000CF90BF90AF909F907F906F905F904F9014
:1054A0000895BF92CF92DF92EF92FF920F931F93D6
:1054B000CF93DF93CDB7DEB7A2970FB6F894DEBFD8
:1054C0000FBECDBFB82E809110059091110563E0FD
:1054D00070E00E94FD59892BE9F165E083E497E0D3
:1054E0000E9451227E012DE1E20EF11C870122E093
:1054F00044E00E948B5A6E0186E1C80ED11C609177
:105500003B0770913C0780913D0790913E070E94B8
:10551000BC5720E030E044EB58E40E94215786015C
:1055200022E046E00E948B5ADF92CF92FF92EF92E8
:1055300087E193E09F938F93055111091F930F9378
:105540000E946A5B6B2DC801B5DD0FB6F894DEBF13
:105550000FBECDBFA2960FB6F894DEBF0FBECDBF73
:10556000DF91CF911F910F91FF90EF90DF90CF903F
:10557000BF9008959F92AF92BF92CF92DF92EF9229
:10558000FF920F931F93CF93DF93CDB7DEB7A5970D
:105590000FB6F894DEBF0FBECDBF982E80911005D8
:1055A0009091110563E070E00E94FD59892B09F488
:1055B0005AC08091AB06882319F066E273E002C0FE
:1055C0006AE273E08E010E5D1F4FC8010E94105BFE
:1055D0008091AC06882319F066E273E002C06AE2AB
:1055E00073E07E018EE1E80EF11CC7010E94105BA2
:1055F0008091AD06882319F066E273E002C06AE28A
:1056000073E06E019AE1C90ED11CC6010E94105BC5
:105610008091AE06882319F066E273E002C06AE268
:1056200073E05E0186E1A80EB11CC5010E94105B0B
:10563000BF92AF92DF92CF92FF92EF921F930F93A0
:105640002EE233E03F932F938E010F5F1F4F1F9386
:105650000F930E946A5B692DC8012CDD0FB6F89488
:10566000DEBF0FBECDBFA5960FB6F894DEBF0FBE4E
:10567000CDBFDF91CF911F910F91FF90EF90DF9001
:10568000CF90BF90AF909F9008954F925F926F928E
:105690007F928F929F92AF92BF92CF92DF92EF92C2
:1056A000FF920F931F93CF93DF93CDB7DEB7A497ED
:1056B0000FB6F894DEBF0FBECDBF782E462E809178
:1056C00010059091110565E070E00E94FD59892B4D
:1056D00009F460C00E944A1981115CC06624639479
:1056E000640C3DE0439E20011124C2018459984F6F
:1056F0002C01FC0180819E012F5F3F4F790188239F
:1057000009F440C06E012CE1C20ED11CF20161818E
:10571000728183819481860121E045E00E948B5A49
:105720005E01F2E2AF0EB11CF201658176818781E4
:105730009085850120E042E00E948B5A4E01F6E1FF
:105740008F0E911CF2016185728583859485840199
:1057500021E045E00E948B5A9F928F92BF92AF92B8
:10576000DF92CF921F926F928FE393E09F938F937C
:10577000FF92EF920E946A5B0FB6F894DEBF0FBEF5
:10578000CDBF05C061E573E0C7010E94105B672DC6
:10579000C70190DCA4960FB6F894DEBF0FBECDBF54
:1057A000DF91CF911F910F91FF90EF90DF90CF90FD
:1057B000BF90AF909F908F907F906F905F904F9031
:1057C000089560E062CF61E060CF62E05ECF9F92BB
:1057D000AF92BF92CF92DF92EF92FF920F931F93FF
:1057E000CF93DF93CDB7DEB7A1970FB6F894DEBFA6
:1057F0000FBECDBF982E809110059091110565E0E8
:1058000070E00E94FD59892B09F448C00E944A1992
:10581000811144C0809130079E012F5F3F4F790175
:105820008823A1F16E012CE1C20ED11C60912807E2
:105830007091290780912A0790912B07860121E01A
:1058400045E00E948B5A5E0136E1A30EB11C6091C7
:105850002C0770912D0780912E0790912F078501BD
:1058600021E045E00E948B5ABF92AF92DF92CF9227
:1058700086E693E09F938F93FF92EF920E946A5B7C
:105880000FB6F894DEBF0FBECDBF05C065E773E06D
:10589000C7010E94105B692DC7010CDCA1960FB6F1
:1058A000F894DEBF0FBECDBFDF91CF911F910F9156
:1058B000FF90EF90DF90CF90BF90AF909F900895B2
:1058C0005F926F927F928F929F92AF92BF92CF9290
:1058D000DF92EF92FF920F931F93CF93DF93CDB799
:1058E000DEB765970FB6F894DEBF0FBECDBFF82EBA
:1058F0000E94954E8E010F5F1F4F029781F50E9407
:105900005F4E682E592E0E94594E882E792E0E9485
:10591000534EA82E992E0E94654EC82EB92E0E9475
:105920006B4EE82ED92E0E94714E5F926F927F923D
:105930008F929F92AF92BF92CF92DF92EF929F93FE
:105940008F932AE833E03F932F931F930F930E9486
:105950006A5B0FB6F894DEBF0FBECDBF05C068EA24
:1059600073E0C8010E94105B6F2DC801A3DB659630
:105970000FB6F894DEBF0FBECDBFDF91CF911F9160
:105980000F91FF90EF90DF90CF90BF90AF909F90DE
:105990008F907F906F905F9008953F924F925F92AB
:1059A0006F927F928F929F92AF92BF92CF92DF922F
:1059B000EF92FF920F931F93CF93DF93CDB7DEB794
:1059C000AA970FB6F894DEBF0FBECDBF382E8091D8
:1059D00010059091110565E070E00E94FD59892B3A
:1059E00009F47AC00E944A19811176C0809112058B
:1059F0009E012F5F3F4F7901882309F456C082E151
:105A000095E00E9448482B013C0182E195E00E940C
:105A100074484B015C016E0120E2C20ED11C86016C
:105A200024E047E0C301B2010E948B5ACE014696A2
:105A30009AA789A78C0124E048E0C501B4010E941F
:105A40008B5A20E030E0A901C501B4010E94CA5878
:105A500018161CF401E514E002C009E614E020E089
:105A600030E0A901C301B2010E94CA5818161CF403
:105A700088E293E002C08DEB93E01F930F932AA579
:105A80002F9339A53F939F938F93DF92CF928FEB04
:105A900093E09F938F93FF92EF920E946A5B0FB601
:105AA000F894DEBF0FBECDBF14C08091AF059091BA
:105AB000B005A091B105B091B205C297A105B1059D
:105AC00018F46BEC73E002C060EE73E0C7010E9453
:105AD000105B632DC701EEDAAA960FB6F894DEBF0D
